:020000040800F2
:10000000B81D002089010008793600081D3000085D
:100010007536000881030008E9410008000000006F
:100020000000000000000000000000002937000868
:100030008503000800000000E93600088137000849
:10004000A3010008A3010008A3010008A301000800
:10005000A3010008A3010008A3010008A3010008F0
:10006000A3010008A3010008A3010008A3010008E0
:10007000A3010008A3010008A3010008A3010008D0
:10008000A3010008A3010008A3010008A3010008C0
:10009000A3010008A3010008A3010008A3010008B0
:1000A000A301000859380008A3010008A3010008B3
:1000B000A3010008A3010008A3010008A301000890
:1000C000A3010008A3010008A3010008A301000880
:1000D000A30100083D4100084D4100085D410008B2
:1000E000A3010008A3010008A301000800F002F822
:1000F00000F03AF80AA090E8000C82448344AAF188
:100100000107DA4501D100F02FF8AFF2090EBAE885
:100110000F0013F0010F18BFFB1A43F0010318473B
:10012000DC760000FC760000103A24BF78C878C165
:10013000FAD8520724BF30C830C144BF04680C60ED
:10014000704700000023002400250026103A28BF35
:1001500078C1FBD8520728BF30C148BF0B60704739
:100160001FB51FBD10B510BD00F0CFF81146FFF749
:10017000F7FF04F0EFFF00F0EDF803B4FFF7F2FF34
:1001800003BC00F0F5F80000094880470948004723
:10019000FEE7FEE7FEE7FEE7FEE7FEE7FEE7FEE737
:1001A000FEE7FEE704480549054A064B7047000094
:1001B000F9370008ED000008B8170020B81D00202E
:1001C000B8190020B8190020032A40F2308010F03E
:1001D000030C00F0158011F8013BBCF1020F6244E2
:1001E00098BF11F801CB00F8013B38BF11F8013B73
:1001F000A2F1040298BF00F801CB38BF00F8013B20
:1002000011F0030300F04F80083AC0F0088051F865
:10021000043B083A51F804CBA0E80810F5E7121D9A
:100220005CBF51F8043B40F8043BAFF30080D207B9
:1002300024BF11F8013B11F801CB48BF11F8012B85
:1002400024BF00F8013B00F801CB48BF00F8012BA8
:1002500070474FF0000200B5134694469646203989
:1002600022BFA0E80C50A0E80C50B1F12001BFF46F
:10027000F7AF090728BFA0E80C5048BF0CC05DF8D5
:1002800004EB890028BF40F8042B08BF704748BF23
:1002900020F8022B11F0804F18BF00F8012B704797
:1002A00070477047704710B5203AC0F00B80B1E836
:1002B0001850A0E81850B1E81850A0E81850203A9B
:1002C000BFF4F5AF5FEA027C24BFB1E81850A0E8A4
:1002D000185044BF18C918C0BDE810405FEA827CBE
:1002E00024BF51F8043B40F8043B08BF7047D207D5
:1002F00028BF31F8023B48BF11F8012B28BF20F876
:10030000023B48BF00F8012B7047754600F02CF8FF
:10031000AE4605006946534620F00700854618B0F2
:1003200020B5FFF73FFFBDE820404FF000064FF03B
:1003300000074FF000084FF0000BAC46ACE8C009D6
:10034000ACE8C009ACE8C009ACE8C00921F007017D
:100350008D46704710B50446AFF300802046BDE8D7
:100360001040FFF70ABF000000487047100000204F
:1003700001491820ABBEFEE72600020070470000CE
:10038000FFE7FEE770470000FFE7FEE781B000905F
:1003900040F68011C2F200010020C86142F2100153
:1003A000C4F20201086840F004000860086840F0E8
:1003B0004000086001B0704781B0009040F68011A5
:1003C000C2F200010020C86142F21001C4F2020131
:1003D000086840F002000860009842F21402C4F27B
:1003E00002021060086840F04000086001B07047E9
:1003F00082B00190ADF8021040F68011C2F2000107
:100400000020C86142F21001C4F20201086840F005
:1004100001000860BDF802000199088002B0704731
:1004200081B000200090012040B9FFE742F21C009B
:10043000C4F202000068C00748B915E042F20C009F
:10044000C4F202000068C00600280DD5FFE740F6A0
:100450008011C2F20001C86940F00200C861009832
:1004600040F010000090FFE7012040B9FFE742F2A2
:100470001C00C4F202000068C00748B915E042F24F
:100480000C00C4F202000068400700280DD5FFE709
:1004900040F68011C2F20001C86940F00100C86155
:1004A000009840F004000090FFE7002040B9FFE70B
:1004B00042F21C00C4F202000068C00750B91CE000
:1004C00042F20C00C4F20200006840F2011108423E
:1004D00013D0FFE740F68011C2F20001C86940F076
:1004E0000400C861FFE742F21C01C4F2020108687F
:1004F00020F001000860FFE7FFE7FFE7009840F207
:100500000111884209D1FFE742F21C01C4F2020145
:10051000086820F00100086006E0009842F20C0133
:10052000C4F202010860FFE7FFE701B07047000076
:1005300080B584B0029000F07BFC0190FFE742F2AE
:100540000C00C4F202000068C007A8B1FFE70298DF
:10055000013080B1FFE7029840B1FFE700F068FC8E
:100560000199401A0299884204D9FFE703208DF8C7
:100570000F0065E0FFE7E2E7012040B9FFE742F244
:100580001C00C4F202000068C00748B911E042F242
:100590000C00C4F2020000688006002809D5FFE7BD
:1005A000FFE742F20C01C4F2020120200860FFE7DD
:1005B000FFE7012040B9FFE742F21C00C4F202004D
:1005C0000068C00790BB08E042F20C00C4F20200D1
:1005D0000068C006002829D4FFE7002040B9FFE7E3
:1005E00042F21C00C4F202000068C007F0B909E042
:1005F00042F20C00C4F20200006840F2011108420D
:1006000014D1FFE7012040B9FFE742F21C00C4F219
:1006100002000068C00748B90EE042F20C00C4F2C4
:10062000020000684007002806D5FFE7FFF7F8FE44
:1006300001208DF80F0003E000208DF80F00FFE788
:100640009DF80F0004B080BD83B0019000208DF8AC
:100650000300019890F8210002280DD0FFE70199CE
:1006600004208863FFE70199002081F82000FFE75C
:1006700001208DF80B0021E001980168086820F046
:100680000E00086001980168086820F00100086009
:100690000198C16B026C012090404860FFE701990E
:1006A000012081F82100FFE70199002081F8200056
:1006B000FFE79DF803008DF80B00FFE79DF80B00A6
:1006C00003B0704780B588B0079000208DF81B00FC
:1006D000079890F82100022807D0FFE70799042027
:1006E000886301208DF81B0076E007980168086890
:1006F00020F00E00086007980168086820F00100EB
:100700000860079800680821C4F20201884203D1FA
:10071000FFE70120059047E0079800681C21C4F21C
:100720000201884203D1FFE71020049039E00798C6
:1007300000683021C4F20201884204D1FFE74FF47F
:10074000807003902AE0079800684421C4F20201F7
:10075000884204D1FFE74FF4805002901BE00798D5
:1007600000685821C4F20201884204D1FFE74FF427
:10077000803001900CE0079801686C22C4F20202FC
:100780004FF08070914208BF4FF480100190FFE756
:1007900001980290FFE702980390FFE70398049006
:1007A000FFE704980590FFE705980421C4F20201D1
:1007B00008600799012081F82100FFE707990020D0
:1007C00081F82000FFE70798406B20B1FFE707980A
:1007D000416B8847FFE7FFE79DF81B0008B080BD2D
:1007E00080B586B00490039101208DF80B000020A5
:1007F0000190FFE740F68010C2F20000007E012861
:1008000004D1FFE702208DF817006AE040F680115E
:10081000C2F2000101200876FFE7FFE704980068B4
:10082000022819D1FFE74CF25030FFF781FE90B952
:10083000FFE70120FFF7AAFD4CF25030FFF778FEEA
:100840008DF80B0042F21001C4F20201086820F09A
:1008500004000860FFE737E04CF25030FFF768FE15
:1008600088BBFFE703994FF0FF3008600498806869
:100870000190FFE70198049A9168D26801EB822108
:1008800088421FD2FFE70198FFF796FD4CF25030E7
:10089000FFF74EFE8DF80B0042F21001C4F2020188
:1008A000086820F0020008609DF80B0020B1FFE707
:1008B00001980399086005E0FFE7019800F5806062
:1008C0000190D7E7FFE7FFE7FFE740F68011C2F2AC
:1008D000000100200876FFE79DF80B008DF8170057
:1008E000FFE79DF8170006B080BD000042F210013E
:1008F000C4F20201086840F08000086000207047E0
:1009000080B588B0069005910393029201208DF87E
:10091000070000208DF806008DF80500FFE740F67F
:100920008010C2F20000007E012804D1FFE70220FF
:100930008DF81F0076E040F68011C2F20001012020
:100940000876FFE7FFE74CF25030FFF7F1FD8DF836
:1009500007009DF80700002857D1FFE706980128F7
:1009600004D1FFE701208DF805000CE0069802286D
:1009700004D1FFE702208DF8050003E004208DF884
:100980000500FFE7FFE700208DF80600FFE79DF870
:1009900006009DF80510884236DAFFE705989DF8B5
:1009A00006C000EB4C000299039A4FEA0C1E20236C
:1009B000A3EB0C1302FA03F321FA0EF119436FF0C3
:1009C0001F0303EB0C13DA40002B58BF114689B20A
:1009D000FFF70EFD4CF25030FFF7AAFD8DF807002F
:1009E00042F21001C4F20201086820F00100086020
:1009F0009DF8070008B1FFE706E0FFE79DF8060055
:100A000001308DF80600C2E7FFE7FFE740F68011EE
:100A1000C2F2000100200876FFE79DF807008DF87C
:100A20001F00FFE79DF81F0008B080BD81B00020C7
:100A30008DF8030042F21000C4F2020000680006C4
:100A400000281CD5FFE742F20401C4F2020140F283
:100A50002310C4F26750086048F6AB10CCF6EF5094
:100A6000086042F21000C4F202000068000600288C
:100A700004D5FFE701208DF80300FFE7FFE79DF8AD
:100A8000030001B07047000090B00F900E9100205D
:100A90000D900990FFE70E9800680D99C840002856
:100AA00000F07F81FFE70D99012088400C900E989F
:100AB00000680C9908400B900B980C99884240F004
:100AC0006C81FFE70E9840680590002851D0FFE741
:100AD000059801283AD0FFE7059802283FD0FFE7A4
:100AE000059803285FD0FFE70598112832D0FFE76B
:100AF0000598122838D0FFE705980021C1F21101AE
:100B0000884236D0FFE705980021C1F212018842E1
:100B10002FD0FFE705980021C1F22101884228D09B
:100B2000FFE705980021C1F22201884221D0FFE7AA
:100B300005980021C1F2310188421AD0FFE70598DB
:100B40000021C1F23201884213D02FE00E98C06814
:100B500009902CE00E98C0680430099027E00E98A8
:100B6000C0680830099022E00E98C0680C300990E7
:100B70001DE00E98806818B9FFE70420099011E085
:100B80000E988068012806D1FFE7082009900C988C
:100B90000F99086105E0082009900C980F994861A9
:100BA000FFE7FFE703E00020099000E0FFE70B9874
:100BB000FF2803D8FFE70F98049003E00F98043054
:100BC0000490FFE7049808900B98FF2804D8FFE7EB
:100BD0000D988000039006E00D996FF01F0000EB68
:100BE00081000390FFE70398079008980068079A30
:100BF0000F21914088430999914008430899086062
:100C00000E98C079C006002840F1C680FFE7FFE7D4
:100C100041F21800C4F20200016841F001010160D4
:100C2000006800F0010006900698FFE70D9820F09C
:100C300003000821C4F2010140580A900D9800F009
:100C4000030081000F2000FA01F10A9888430A90FE
:100C50000F9840F60001C4F20101884203D1FFE77A
:100C60000020029026E00F9840F60041C4F20101F6
:100C7000884203D1FFE70120019018E00F9841F26C
:100C80000001C4F20101884203D1FFE70220009075
:100C90000AE00F9941F20042C4F20102042091429D
:100CA00008BF03200090FFE700980190FFE701983C
:100CB0000290FFE702980D9901F00301890000FA04
:100CC00001F10A9808430A900A980D9921F003014E
:100CD0000822C4F2010288500E988079C00748B1FA
:100CE000FFE70B9A40F20041C4F20101086810438B
:100CF000086008E00B9A40F20041C4F20101086864
:100D000090430860FFE70E9880798007002809D596
:100D1000FFE70B9A40F20441C4F201010868104356
:100D2000086008E00B9A40F20441C4F2010108682F
:100D300090430860FFE70E988079C006002809D527
:100D4000FFE70B9A40F20841C4F201010868104322
:100D5000086008E00B9A40F20841C4F201010868FB
:100D600090430860FFE70E9880798006002809D537
:100D7000FFE70B9A40F20C41C4F2010108681043EE
:100D8000086008E00B9A40F20C41C4F201010868C7
:100D900090430860FFE7FFE7FFE70D9801300D90F3
:100DA00079E610B07047000082B00190ADF80210F3
:100DB00001988068BDF80210084204D0FFE70120C6
:100DC0008DF8010003E000208DF80100FFE79DF899
:100DD000010002B07047000083B00290ADF8061029
:100DE0000298C0680090009ABDF8060002EA00016F
:100DF000904340EA01400299086103B07047000047
:100E000082B00190ADF802108DF801209DF801002C
:100E100028B1FFE7BDF802000199086105E0BDF8BF
:100E20000200000401990861FFE702B0704700006A
:100E300041F2B070C2F200000068704740F2040056
:100E4000C2F20000027841F2B071C2F200010868FB
:100E5000104408607047000080B582B042F2000183
:100E6000C4F20201086840F010000860032000F09E
:100E700097F80020019000F005F800F03BF8019889
:100E800002B080BD80B582B0009040F20000C2F296
:100E90000000006840F20401C2F200010A784FF439
:100EA0007A71B1FBF2F1B0FBF1F000F087FD20B1F7
:100EB000FFE701208DF8070018E000980F280DD8F3
:100EC000FFE700994FF0FF30002200F04FF8009844
:100ED00040F20801C2F20001086003E001208DF831
:100EE000070003E000208DF80700FFE79DF80700EA
:100EF00002B080BD83B0FFE741F21800C4F20200E7
:100F0000016841F001010160006800F001000290F9
:100F10000298FFE7FFE741F21C00C4F202000168FB
:100F200041F080510160006800F08050019001980C
:100F3000FFE7FFE70421C4F2010108680090009870
:100F400020F0E0600090009840F000700090009861
:100F50000860FFE703B0704780B582B08DF80700E6
:100F60009DF9070003F042F902B080BD80B586B05C
:100F70008DF81700049103920020029003F04EF9BF
:100F800002909DF91700019002980499039A02F0CB
:100F900075FB0146019803F049F906B080BD0000D9
:100FA00080B582B00190019803F062F902B080BD73
:100FB00080B584B002900191029820B9FFE701202A
:100FC0008DF80F001BE1019842F20001C4F202010A
:100FD000096801F00701884216D9FFE742F20000D4
:100FE000C4F20200016821F00701019A1143016077
:100FF000006800F007000199884204D0FFE7012053
:101000008DF80F00FBE0FFE70298007880070028CA
:101010002AD5FFE7029800784007002809D5FFE7A6
:1010200041F20401C4F20201086840F4E060086083
:10103000FFE7029800780007002809D5FFE741F292
:101040000401C4F20201086840F460500860FFE740
:1010500041F20401C4F20201086820F0F000029A93
:10106000926810430860FFE702980078C0070028E4
:1010700060D0FFE70298406801280ED1FFE741F2F7
:101080000000C4F2020000688003002804D4FFE7D7
:1010900001208DF80F00B2E021E00298406802289C
:1010A0000ED1FFE741F20000C4F2020000688001A7
:1010B000002804D4FFE701208DF80F009FE00DE029
:1010C00041F20000C4F2020000688007002804D446
:1010D000FFE701208DF80F0091E0FFE7FFE741F205
:1010E0000401C4F20201086820F00300029A526869
:1010F00010430860FFF79CFE0090FFE741F20400F8
:10110000C4F20200006800F00C0002994968B0EBDC
:10111000810F0ED0FFE7FFF78BFE0099401A41F2D6
:101120008931884204D3FFE703208DF80F0066E081
:10113000E4E7FFE7019842F20001C4F20201096806
:1011400001F00701884216D2FFE742F20000C4F224
:101150000200016821F00701019A11430160006853
:1011600000F007000199884204D0FFE701208DF8C4
:101170000F0044E0FFE702980078400700280CD5F4
:10118000FFE741F20401C4F20201086820F4E060C4
:10119000029AD26810430860FFE7029800780007BF
:1011A00000280DD5FFE741F20401C4F202010868EE
:1011B00020F46050029A126940EAC2000860FFE71A
:1011C00000F04CF841F20401C4F202010968C9B20E
:1011D0000A0947F2B841C0F60001895CC84040F2F4
:1011E0000001C2F20001086040F20800C2F20000F3
:1011F0000068FFF747FE00208DF80F00FFE79DF81D
:101200000F0004B080BD000040F20000C2F20000F8
:101210000068704780B5FFF7F7FF41F20401C4F2A0
:1012200002010968C1F3022247F2C841C0F6000179
:10123000895CC84080BD000080B5FFF7E5FF41F242
:101240000401C4F202010968C1F3C22247F2C84195
:10125000C0F60001895CC84080BD00008BB040F63C
:101260000E70C1F210000A9040F60A30C0F60C5021
:10127000099040F20670C0F60810089040F2023063
:10128000C0F20450079040F20120ADF81A0000208F
:101290000590049003900290019041F20400C4F282
:1012A000020000680590059800F00C0001460091CE
:1012B000E0B3FFE70098042804D0FFE7009808286F
:1012C00006D034E041F20020C0F27A00019034E010
:1012D0000598C0F3834107A8405C02909DF8160072
:1012E000C007C0B1FFE741F20400C4F20200006889
:1012F00000F400310DF11A0040EA514000780490EA
:10130000029841F20021C0F27A0148430499B0FBEF
:10131000F1F0039007E0029840F60011C0F23D01A1
:1013200048430390FFE70398019006E0FFE741F28E
:101330000020C0F27A000190FFE701980BB07047DF
:1013400080B586B00490049820B9FFE701208DF89D
:1013500017002EE304980078C007002800F0AE8044
:10136000FFE741F20400C4F20200006800F00C0044
:10137000042813D0FFE741F20400C4F20200006821
:1013800000F00C0008281BD1FFE741F20400C4F272
:1013900002000068C003002812D5FFE741F20000F8
:1013A000C4F2020000688003002808D5FFE7049813
:1013B000406820B9FFE701208DF81700F9E27CE0D2
:1013C000FFE704984068B0F5803F09D1FFE741F29C
:1013D0000001C4F20201086840F48030086032E085
:1013E0000498406868B9FFE741F20001C4F20201C5
:1013F000086820F480300860086820F480200860C5
:1014000020E004984068B0F5A02F0DD1FFE741F22D
:101410000001C4F20201086840F4802008600868F6
:1014200040F4803008600CE041F20001C4F2020197
:10143000086820F480300860086820F48020086084
:10144000FFE7FFE7FFE7FFE704984068D0B1FFE759
:10145000FFF7EEFC0390FFE741F20000C4F2020048
:101460000068800300280CD4FFE7FFF7E1FC039934
:10147000401A652804D3FFE703208DF8170098E28F
:10148000EAE719E0FFF7D4FC0390FFE741F2000020
:10149000C4F202000068800300280CD5FFE7FFF7C4
:1014A000C7FC0399401A652804D3FFE703208DF891
:1014B00017007EE2EAE7FFE7FFE7FFE7049800781E
:1014C0008007002840F18D80FFE741F20400C4F25C
:1014D0000200006810F00C0F13D0FFE741F2040087
:1014E000C4F20200006800F00C00082829D1FFE7D0
:1014F00041F20400C4F202000068C003002820D4B6
:10150000FFE741F20000C4F20200006880070028F3
:1015100009D5FFE704980069012804D0FFE70120FE
:101520008DF8170045E241F20001C4F2020108689B
:1015300020F0F800049A526940EAC2000860FFE710
:101540004EE00498006958B3FFE70021C4F242213D
:1015500001200860FFF76CFC0390FFE741F20000F8
:10156000C4F202000068800700280CD4FFE7FFF7F0
:101570005FFC0399401A032804D3FFE703208DF88A
:10158000170016E2EAE741F20001C4F2020108681E
:1015900020F0F800049A526940EAC20008601EE098
:1015A0000021C4F2422100200860FFF741FC0390B3
:1015B000FFE741F20000C4F2020000688007002843
:1015C0000CD5FFE7FFF734FC0399401A032804D336
:1015D000FFE703208DF81700EBE1EAE7FFE7FFE7FD
:1015E000FFE7049800780007002848D5FFE7049833
:1015F000806918B3FFE740F28041C4F24221012024
:101600000860FFF715FC0390FFE741F22400C4F2E5
:1016100002000068800700280CD4FFE7FFF708FCF1
:101620000399401A032804D3FFE703208DF817001D
:10163000BFE1EAE7012002F059F81FE040F28041E3
:10164000C4F2422100200860FFF7F2FB0390FFE79D
:1016500041F22400C4F202000068800700280CD583
:10166000FFE7FFF7E5FB0399401A032804D3FFE7E0
:1016700003208DF817009CE1EAE7FFE7FFE70498F5
:1016800000784007002840F1D880FFE700208DF85F
:10169000070041F21C00C4F202000068C0000028EC
:1016A00013D4FFE7FFE741F21C00C4F20200016817
:1016B00041F080510160006800F080500090009877
:1016C000FFE701208DF80700FFE747F20000C4F2B2
:1016D00000000068C005002822D4FFE747F200019F
:1016E000C4F20001086840F480700860FFF7A0FBB6
:1016F0000390FFE747F20000C4F200000068C00555
:1017000000280CD4FFE7FFF793FB0399401A6528E4
:1017100004D3FFE703208DF817004AE1EAE7FFE76B
:10172000FFE70498C068012809D1FFE741F22001D2
:10173000C4F20201086840F00100086031E004983A
:10174000C06868B9FFE741F22001C4F202010868ED
:1017500020F001000860086820F0040008601FE025
:101760000498C06805280DD1FFE741F22001C4F2BA
:101770000201086840F004000860086840F00100B9
:1017800008600CE041F22001C4F20201086820F078
:1017900001000860086820F004000860FFE7FFE728
:1017A000FFE7FFE70498C068E0B1FFE7FFF740FB01
:1017B0000390FFE741F22000C4F2020000688007B6
:1017C00000280ED4FFE7FFF733FB0399401A41F2DC
:1017D0008931884204D3FFE703208DF81700E8E041
:1017E000E8E71BE0FFF724FB0390FFE741F220004E
:1017F000C4F202000068800700280ED5FFE7FFF75B
:1018000017FB0399401A41F28931884204D3FFE75C
:1018100003208DF81700CCE0E8E7FFE79DF807000C
:10182000012809D1FFE741F21C01C4F20201086856
:1018300020F080500860FFE7FFE70498C0690028A7
:1018400000F0B380FFE741F20400C4F20200006838
:1018500000F00C00082800F08280FFE70498C069BF
:1018600002285CD1FFE76021C4F242210020086019
:10187000FFF7DEFA0390FFE741F20000C4F2020036
:101880000068800100280CD5FFE7FFF7D1FA039923
:10189000401A032804D3FFE703208DF8170088E0DF
:1018A000EAE70498006AB0F5803F0CD1FFE741F207
:1018B0000401C4F20201086820F40030049A92681E
:1018C00010430860FFE741F20401C4F20201086816
:1018D00020F47410049B1A6A5B6A1A431043086070
:1018E0006021C4F2422101200860FFF7A1FA0390B1
:1018F000FFE741F20000C4F2020000688001002806
:101900000CD4FFE7FFF794FA0399401A032804D395
:10191000FFE703208DF817004BE0EAE71EE06021A7
:10192000C4F2422100200860FFF782FA0390FFE72B
:1019300041F20000C4F202000068800100280CD5CA
:10194000FFE7FFF775FA0399401A032804D3FFE76E
:1019500003208DF817002CE0EAE7FFE724E0049865
:10196000C069012804D1FFE701208DF8170020E0AD
:1019700041F20400C4F2020000680290029800F4F0
:1019800080300499096A884208D1FFE7029800F480
:1019900070100499496A884204D0FFE701208DF84D
:1019A000170006E0FFE7FFE7FFE700208DF81700CC
:1019B000FFE79DF8170006B080BD000080B582B03B
:1019C0000190019801F0B2FE02B080BD81B000909C
:1019D00001B0704781B0009001B0704785B00390AE
:1019E0000291FFE7039890F83C00012804D1FFE73B
:1019F00002208DF813005BE00399012081F83C0080
:101A0000FFE7FFE70399022081F83D000398006893
:101A1000406801900398006880680090019820F069
:101A200070000190029801680198084301900198A4
:101A30000399096848600398006842F60041C4F2BF
:101A40000101884218D0FFE703980068B0F1804F89
:101A500012D0FFE70398006840F20041C4F2000191
:101A6000884209D0FFE70398006840F60001C4F2FD
:101A7000000188420ED1FFE7009820F0800000901E
:101A800002984168009808430090009803990968FB
:101A90008860FFE70399012081F83D00FFE7039983
:101AA000002081F83C00FFE700208DF81300FFE7DD
:101AB0009DF8130005B0704780B582B00090009883
:101AC00020B9FFE701208DF807003FE0009890F86B
:101AD0003D0040B9FFE70099002081F83C000098E4
:101AE00000F038F8FFE70099022081F83D000099E6
:101AF00051F8040B01F0B8FE0099012081F846006E
:101B0000FFE70099012081F83E00009981F83F002D
:101B1000009981F84000009981F84100FFE7FFE754
:101B20000099012081F84200009981F84300009952
:101B300081F84400009981F84500FFE700990120F1
:101B400081F83D0000208DF80700FFE79DF80700B1
:101B500002B080BD80B586B005900598006842F659
:101B60000041C4F20101884219D1FFE7FFE741F2C9
:101B70001800C4F20200016841F4006101600068CD
:101B800000F4006004900498FFE719200090012100
:101B90000022FFF7EBF90098FFF7DEF94AE005981D
:101BA0000068B0F1804F10D1FFE7FFE741F21C0061
:101BB000C4F20200016841F001010160006800F018
:101BC000010003900398FFE733E00598006840F2B6
:101BD0000041C4F20001884210D1FFE7FFE741F263
:101BE0001C00C4F20200016841F0020101600068BB
:101BF00000F0020002900298FFE719E005980068E3
:101C000040F60001C4F20001884210D1FFE7FFE76F
:101C100041F21C00C4F20200016841F004010160BD
:101C2000006800F0040001900198FFE7FFE7FFE77C
:101C3000FFE7FFE706B080BD83B00190019890F800
:101C40003D00012804D0FFE701208DF80B0041E0A2
:101C50000199022081F83D000198006842F6004198
:101C6000C4F20101884218D0FFE701980068B0F182
:101C7000804F12D0FFE70198006840F20041C4F2A3
:101C80000001884209D0FFE70198006840F6000192
:101C9000C4F20001884212D1FFE701980068806811
:101CA00000F0070000900098062807D0FFE7019891
:101CB0000168086840F001000860FFE706E001984D
:101CC0000168086840F001000860FFE700208DF817
:101CD0000B00FFE79DF80B0003B0704783B0019045
:101CE000019890F83D00012804D0FFE701208DF80D
:101CF0000B0047E00199022081F83D00019801683E
:101D0000C86840F00100C8600198006842F60041D0
:101D1000C4F20101884218D0FFE701980068B0F1D1
:101D2000804F12D0FFE70198006840F20041C4F2F2
:101D30000001884209D0FFE70198006840F60001E1
:101D4000C4F20001884212D1FFE701980068806860
:101D500000F0070000900098062807D0FFE70198E0
:101D60000168086840F001000860FFE706E001989C
:101D70000168086840F001000860FFE700208DF866
:101D80000B00FFE79DF80B0003B0704780B586B0ED
:101D900004900391FFE7049890F83C00012804D1D7
:101DA000FFE702208DF81700A7E00499012081F8D1
:101DB0003C00FFE7FFE70499022081F83D0004980A
:101DC000006880680290029820F0770002900298E4
:101DD00020F47F4002900298049909688860039873
:101DE00000680190002872D0FFE7019810286ED09B
:101DF000FFE7019820286AD0FFE70198302866D0D5
:101E0000FFE70198402855D0FFE70198502837D0C8
:101E1000FFE70198602840D0FFE7019870280BD0B9
:101E2000FFE70198B0F5805F05D0FFE70198B0F5B6
:101E3000005F16D052E052E004980068039B5A6895
:101E40009968DB6801F0A4FD04980068806802903E
:101E5000029840F07700029002980499096888601F
:101E60003DE004980068039B5A689968DB6801F0BC
:101E70008FFD04980168886840F4804088602EE0F7
:101E800004980068039A5168D26801F03DFF0498F5
:101E90000068502101F096FD21E004980068039A43
:101EA0005168D26801F058FF04980068602101F081
:101EB00089FD14E004980068039A5168D26801F023
:101EC00023FF04980068402101F07CFD07E004989E
:101ED00000680399096801F075FD00E0FFE70499C7
:101EE000012081F83D00FFE70499002081F83C00C3
:101EF000FFE700208DF81700FFE79DF8170006B0F8
:101F000080BD000081B0009001B0704780B582B004
:101F1000019001980068006900F002010020B0EB18
:101F2000510F28D0FFE701980068C06800F0020157
:101F30000020B0EB510F1DD0FFE7019801686FF052
:101F40000200086101990120087701980068806902
:101F5000800720B1FFE70198FFF7D4FF06E0019862
:101F600000F0AAF9019800F097FAFFE70199002024
:101F70000877FFE7FFE701980068006900F00401B7
:101F80000020B0EB910F29D0FFE701980068C068EE
:101F900000F004010020B0EB910F1ED0FFE7019884
:101FA00001686FF004000861019902200877019828
:101FB0000068806910F4407F04D0FFE70198FFF7C4
:101FC000A1FF06E0019800F077F9019800F064FAAB
:101FD000FFE7019900200877FFE7FFE70198006815
:101FE000006900F008010020B0EBD10F28D0FFE716
:101FF00001980068C06800F008010020B0EBD10F24
:102000001DD0FFE7019801686FF008000861019991
:102010000420087701980068C069800720B1FFE7B5
:102020000198FFF76FFF06E0019800F045F901986D
:1020300000F032FAFFE7019900200877FFE7FFE799
:1020400001980068006900F010010020B0EB111F3A
:1020500029D0FFE701980068C06800F01001002057
:10206000B0EB111F1ED0FFE7019801686FF0100060
:10207000086101990820087701980068C06910F488
:10208000407F04D0FFE70198FFF73CFF06E001988E
:1020900000F012F9019800F0FFF9FFE70199002024
:1020A0000877FFE7FFE7019800680069C00780B183
:1020B000FFE701980068C068C00748B1FFE70198D2
:1020C00001686FF001000861019800F00BFBFFE769
:1020D000FFE7019800680069C1B20020B0EBD11F92
:1020E00013D0FFE701980068C068C1B20020B0EBD0
:1020F000D11F09D0FFE7019801686FF080000861E7
:102100000198FFF763FCFFE7FFE7019800680069AB
:1021100000F040010020B0EB911F14D0FFE70198C0
:102120000068C06800F040010020B0EB911F09D0AA
:10213000FFE7019801686FF040000861019800F026
:10214000E9FAFFE7FFE701980068006900F0200165
:102150000020B0EB511F14D0FFE701980068C06861
:1021600000F020010020B0EB511F09D0FFE70198DB
:1021700001686FF0200008610198FFF72BFCFFE772
:10218000FFE702B080BD000080B58CB00B9000204E
:102190000A900990089007900B980068B0F1804F62
:1021A0001CD1FFE7FFE741F21800C4F2020001680A
:1021B00041F004010160006800F0040006900698F8
:1021C000FFE703200790022008900A9040F60000E5
:1021D000C4F2010007A9FEF757FC6BE00B980068FA
:1021E00040F20041C4F2000188423BD1FFE7FFE723
:1021F00041F21800C4F20200016841F004010160DC
:10220000006800F0040005900598FFE7FFE741F241
:102210001800C4F20200016841F008010160006882
:1022200000F0080004900498FFE7C0200790022007
:1022300000900890032001900A9040F60000C4F23C
:10224000010007A90291FEF71FFC009A019802996C
:10225000079008920A9040F60040C4F20100FEF791
:1022600013FC26E00B98006840F60001C4F2000160
:1022700088421DD1FFE7FFE741F21800C4F20200D7
:10228000016841F008010160006800F00800039057
:102290000398FFE74FF440700790022008900A90DF
:1022A00040F60040C4F2010007A9FEF7EDFBFFE78E
:1022B000FFE7FFE70CB080BD81B0009001B0704730
:1022C00080B586B0049003910292FFE7049890F8DD
:1022D0003C00012804D1FFE702208DF8170085E0BB
:1022E0000499012081F83C00FFE7FFE70298019084
:1022F0000C2800F270800199DFE801F0076D6D6D28
:10230000206D6D6D3A6D6D6D5300049800680399F2
:1023100001F06EFB04980168886940F0080088614C
:1023200004980168886920F00400886103980269B4
:10233000049801688869104388614DE0049800683A
:10234000039901F0BDFB04980168886940F40060BE
:10235000886104980168886920F480608861039826
:10236000026904980168886940EA0220886133E0C4
:1023700004980068039901F00FFC04980168C8698B
:1023800040F00800C86104980168C86920F00400A2
:10239000C8610398026904980168C8691043C8615C
:1023A0001AE004980068039901F062FC049801683F
:1023B000C86940F40060C86104980168C86920F4E5
:1023C0008060C8610398026904980168C86940EA9E
:1023D0000220C86100E0FFE7FFE70499002081F8D0
:1023E0003C00FFE700208DF81700FFE79DF817007D
:1023F00006B080BD80B582B00090009820B9FFE79C
:1024000001208DF807003FE0009890F83D0040B9AA
:10241000FFE70099002081F83C00009800F038F8B0
:10242000FFE70099022081F83D00009951F8040B64
:1024300001F01AFA0099012081F84600FFE700999F
:10244000012081F83E00009981F83F00009981F851
:102450004000009981F84100FFE7FFE70099012063
:1024600081F84200009981F84300009981F8440006
:10247000009981F84500FFE70099012081F83D00AF
:1024800000208DF80700FFE79DF8070002B080BD2F
:1024900081B0009001B0704781B0009001B07047EA
:1024A00080B58AB008900791079828B9FFE7089887
:1024B00090F83E0005901CE00798042805D1FFE73E
:1024C000089890F83F00049010E00798082805D17C
:1024D000FFE7089890F84000039004E0089890F80F
:1024E00041000390FFE703980490FFE704980590EC
:1024F000FFE70598012804D0FFE701208DF82700A9
:102500007AE0079828B9FFE70899022081F83E0091
:102510001EE00798042806D1FFE70899022081F8F9
:102520003F00029012E00798082806D1FFE70899BB
:10253000022081F84000019005E00899022081F80E
:1025400041000190FFE701980290FFE70298FFE742
:10255000089800680799012201F0FEF908980068C0
:1025600042F60041C4F20101884207D1FFE7089812
:102570000168486C40F400404864FFE70898006830
:1025800042F60041C4F20101884218D0FFE70898E2
:102590000068B0F1804F12D0FFE70898006840F261
:1025A0000041C4F20001884209D0FFE708980068A2
:1025B00040F60001C4F20001884212D1FFE70898FA
:1025C0000068806800F0070006900698062807D08B
:1025D000FFE708980168086840F001000860FFE71D
:1025E00006E008980168086840F001000860FFE70D
:1025F00000208DF82700FFE79DF827000AB080BD76
:1026000080B584B00390029103980068029900227B
:1026100001F0A2F90398006842F60041C4F20101FA
:1026200088421BD1FFE7FFE703980068006A41F288
:102630001111084210D1FFE703980068006A40F2C8
:102640004441084207D1FFE703980168486C20F431
:1026500000404864FFE7FFE7FFE7FFE7FFE7039875
:102660000068006A41F21111084210D1FFE7039897
:102670000068006A40F24441084207D1FFE703982E
:102680000168086820F001000860FFE7FFE7FFE746
:10269000029828B9FFE70399012081F83E001EE067
:1026A0000298042806D1FFE70399012081F83F0032
:1026B000019012E00298082806D1FFE70399012053
:1026C00081F84000009005E00399012081F8410065
:1026D0000090FFE700980190FFE70198FFE70020D6
:1026E00004B080BD80B582B001900198006842F6C8
:1026F0000041C4F20101884209D1FFE740F2BC71F8
:10270000C2F200010120087003F084FEFFE702B06E
:1027100080BD000081B0009001B0704782B0019090
:10272000ADF8021002B0704780B584B00390FFE7A7
:1027300000200290039800680068029003980068E7
:10274000406802900298FFE7FFE70020019003989D
:102750000068006801900398006840680190019843
:10276000FFE7FFE7002000900398006800680090F2
:1027700003980068406800900098FFE7039801689C
:10278000486920F0010048610398006843F60001A1
:10279000C4F2010188420CD1FFE740F69800C2F272
:1027A000000040F6B011C2F20001802200F010FBE0
:1027B000FFE70398006844F20041C4F20001884238
:1027C0000DD1FFE740F6DC00C2F2000040F64E619A
:1027D000C2F200014FF4836200F0FAFAFFE70398B7
:1027E000006844F60001C4F2000188420CD1FFE702
:1027F00040F62010C2F2000041F2EA21C2F20001CC
:10280000802200F0E5FAFFE704B080BD80B588B013
:102810000790079800680068069007980068C068ED
:10282000059007980068406904900020039002908A
:10283000069800F00F000390039888B9FFE79DF811
:102840001800800600280AD5FFE79DF814008006CE
:10285000002804D5FFE7079801F0F0FA76E1FFE7DA
:102860000398002800F0B480FFE79DF81000C0072F
:1028700038B9FFE7BDF8140010F4907F00F0A8808D
:10288000FFE79DF81800C00758B1FFE79DF8150055
:10289000C00730B1FFE70799086C40F001000864F9
:1028A000FFE79DF81800400700280BD5FFE79DF8CB
:1028B0001000C00730B1FFE70799086C40F0020034
:1028C0000864FFE79DF81800800700280BD5FFE794
:1028D0009DF81000C00730B1FFE70799086C40F081
:1028E00004000864FFE79DF818000007002811D5D0
:1028F000FFE79DF814008006002805D4FFE79DF847
:102900001000C00730B1FFE70799086C40F00800DD
:102910000864FFE70798006C002858D0FFE79DF88F
:102920001800800600280AD5FFE79DF814008006ED
:10293000002804D5FFE7079801F080FAFFE7079821
:1029400000684069C0F3801002900798006C00078F
:10295000002803D4FFE7029888B3FFE7079801F047
:1029600035FA0798006840694006002822D5FFE73D
:1029700007980168486920F0400048610798806B1B
:1029800098B1FFE70798816B43F6AD50C0F60000A1
:1029900048630798806BFDF795FE28B1FFE707981D
:1029A000806B416B8847FFE703E00798FFF7BCFEA9
:1029B000FFE703E00798FFF7B7FEFFE706E0079899
:1029C000FFF7B2FE079900200864FFE7FFE7BDE0CC
:1029D0000798006B012840F09980FFE79DF81800E8
:1029E000C006002840F19280FFE79DF81400C00661
:1029F000002840F18B80FFE7FFE700200190079857
:102A0000006800680190079800684068019001988C
:102A1000FFE70798006840694006002848D5FFE7AF
:102A20000798806B00684068ADF80200BDF80200AE
:102A3000E8B3FFE7BDF802000799898D884236DACE
:102A4000FFE7BDF802000799C8850798806B806989
:102A5000202824D0FFE707980168C86820F4807018
:102A6000C86007980168486920F00100486107982C
:102A70000168486920F0400048610799202081F8EA
:102A80003E0007990020086307980168C86820F095
:102A90001000C8600798806BFDF7D6FDFFE7079828
:102AA000818DC28D891A89B2FFF738FEFFE74DE0AC
:102AB0000799888DC98D401AADF800000798C08D20
:102AC00018B3FFE7BDF80000F8B1FFE70798016809
:102AD000C86820F49070C86007980168486920F0C1
:102AE000010048610799202081F83E0007990020E5
:102AF000086307980168C86820F01000C86007984C
:102B0000BDF80010FFF70AFEFFE71FE09DF8180070
:102B1000000600280AD5FFE79DF8140000060028EB
:102B200004D5FFE7079801F0BFFA0FE09DF8180001
:102B3000400600280AD5FFE79DF81400400600284B
:102B400004D5FFE7079801F065F9FFE708B080BDFD
:102B500080B582B00090009820B9FFE701208DF881
:102B600007003EE00098806908B1FFE700E0FFE75A
:102B7000009890F83D0040B9FFE70099002081F8E7
:102B80003C00009800F032F8FFE70099242081F81B
:102B90003D0000980168C86820F40050C8600098A3
:102BA00001F0F2F900980168086920F4904008618A
:102BB00000980168486920F02A004861009801687F
:102BC000C86840F40050C860009900200864009A6A
:102BD000202182F83D10009A82F83E108DF80700FF
:102BE000FFE79DF8070002B080BD000080B598B0F7
:102BF0001790002016901590149013901798006865
:102C000043F60001C4F20101884244D1FFE7FFE727
:102C100041F21800C4F20200016841F480410160F1
:102C2000006800F4804012901298FFE7FFE741F23D
:102C30001800C4F20200016841F00401016000685C
:102C400000F0040011901198FFE74FF4007013900A
:102C5000022014900320169040F60000C4F20100F8
:102C6000099013A90A91FDF70FFF09980A994FF4EB
:102C70008062139200220B92149201221592FDF7AA
:102C800003FF0B9A25200C901146FEF76FF90C9864
:102C9000FEF762F999E01798006844F20041C4F227
:102CA0000001884242D1FFE7FFE741F21C00C4F275
:102CB0000200016841F400310160006800F4003056
:102CC00010901098FFE7FFE741F21800C4F20200ED
:102CD000016841F004010160006800F004000F90F9
:102CE0000F98FFE704201390022014900320169001
:102CF00040F60000C4F20100059013A90691FDF70B
:102D0000C3FE059806990822139200220792149296
:102D100001221592FDF7B8FE079A26200890114669
:102D2000FEF724F90898FEF717F94DE017980068A8
:102D300044F60001C4F20001884244D1FFE7FFE7F6
:102D400041F21C00C4F20200016841F480210160DC
:102D5000006800F480200E900E98FFE7FFE741F234
:102D60001800C4F20200016841F008010160006827
:102D700000F008000D900D98FFE74FF4806013906D
:102D8000022014900320169040F60040C4F2010087
:102D9000019013A90291FDF777FE019802994FF473
:102DA0000062139200220392149201221592FDF701
:102DB0006BFE039A272004901146FEF7D7F804987B
:102DC000FEF7CAF8FFE7FFE7FFE718B080BD000095
:102DD00080B584B002900191ADF80220029890F87D
:102DE0003E00202828D1FFE7019820B1FFE7BDF879
:102DF000020020B9FFE701208DF80F0020E0FFE777
:102E0000029890F83C00012804D1FFE702208DF8D9
:102E10000F0015E00299012081F83C00FFE7FFE771
:102E200002990020086302980199BDF8022001F080
:102E300009F98DF80F0003E002208DF80F00FFE77D
:102E40009DF80F0004B080BD80B584B00390039856
:102E5000006843F60001C4F20101884226D1FFE771
:102E600040F6B010C2F2000001900020ADF80A0058
:102E7000FFE7BDF80A007F280CD8FFE70199BDF8ED
:102E80000A2000208854FFE7BDF80A000130ADF8A1
:102E90000A00EEE740F69800C2F2000040F6B011DA
:102EA000C2F200018022FFF793FFFFE7039800685A
:102EB00044F20041C4F20001884228D1FFE740F605
:102EC0004E60C2F2000001900020ADF80A00FFE75A
:102ED000BDF80A00C00882280CD8FFE70199BDF8A8
:102EE0000A2000208854FFE7BDF80A000130ADF841
:102EF0000A00EDE740F6DC00C2F2000040F64E6149
:102F0000C2F200014FF48362FFF762FFFFE703980C
:102F1000006844F60001C4F20001884226D1FFE7B0
:102F200041F2EA20C2F2000001900020ADF80A0050
:102F3000FFE7BDF80A007F280CD8FFE70199BDF82C
:102F40000A2000208854FFE7BDF80A000130ADF8E0
:102F50000A00EEE740F62010C2F2000041F2EA213A
:102F6000C2F200018022FFF733FFFFE704B080BD0B
:102F700084B002900191ADF80220029890F83D00D3
:102F800020283ED1FFE7019820B1FFE7BDF80200FD
:102F900020B9FFE701208DF80F0036E0FFE7029827
:102FA00090F83C00012804D1FFE702208DF80F00C3
:102FB0002BE00299012081F83C00FFE7FFE7019830
:102FC00002990862BDF8020002998884BDF80200E7
:102FD0000299C8840299002008640299212081F88E
:102FE0003D00FFE70299002081F83C00FFE70298CE
:102FF0000168C86840F08000C86000208DF80F00AC
:1030000003E002208DF80F00FFE79DF80F0004B0E9
:103010007047000081B0009001B07047FFE7FEE705
:1030200080B584B08DF80F0041F28630C2F2000006
:10303000029000208DF8070002999DF80720501C8F
:103040008DF80700FA20885402999DF80720501C3B
:103050008DF80700F12088549DF80F0002999DF823
:103060000720531C8DF80730885402999DF80720DB
:10307000501C8DF807000D20885402999DF80720F8
:10308000501C8DF807000A20885402999DF80720EB
:1030900040F69800C2F20000FFF76AFF04B080BD5E
:1030A00080B594B000201390129011901090FFE71B
:1030B00041F21800C4F20200016841F01001016001
:1030C000006800F010000F900F98FFE7FFE741F253
:1030D0001800C4F20200016841F02001016000689C
:1030E00000F020000E900E98FFE7FFE741F2180075
:1030F000C4F20200016841F004010160006800F0C0
:1031000004000D900D98FFE7FFE741F21800C4F2AC
:103110000200016841F008010160006800F0080049
:103120000C900C98FFE741F20000C4F201000290FD
:103130004FF40051019100220692FDF761FE069ABC
:1031400040F60000C4F2010005904FF4987103911D
:10315000FDF756FE069A40F60040C4F201000A90C0
:103160004FF400410491FDF74BFE0A98802107912E
:1031700001220892FDF744FE019B02980699089AE5
:103180001093119212910321139110A90B91FDF745
:103190007BFCDDF80CC00598069A089B0B99CDF8CE
:1031A00040C011931292022209921392FDF76CFC17
:1031B000069BDDF820C0099A0A980B99DDF810E00B
:1031C000CDF840E0CDF844C012931392FDF75CFCBB
:1031D0000598069B089A0B994FF4184CCDF840C0FF
:1031E00011931292FDF750FC069B089A0A980B99CE
:1031F0004FF0780CCDF840C011931292FDF744FCCB
:10320000DDF81CC0089B099A0A980B99CDF840C0BC
:10321000119312931392FDF737FC14B080BD000098
:1032200080B588B000210091079106910591049125
:103230000391029140F27470C2F20000019042F6D4
:103240000042C4F2010202600B22426081604EF62D
:103250005F22C2600161416180218161FEF72CFC27
:1032600018B1FFE7FDF790F8FFE74FF480500490A6
:1032700040F27470C2F2000004A9FEF787FD18B195
:10328000FFE7FDF781F8FFE7202002900020039080
:1032900040F27470C2F2000002A9FEF79FFB18B161
:1032A000FFE7FDF771F8FFE708B080BD80B58EB08D
:1032B000002100910D910C910B910A9109910891B7
:1032C000079106910591049103910291019140F2B9
:1032D000C070C2F200004FF0804202604160816025
:1032E0004FF6FF72C26001618161FEF7E5FB18B124
:1032F000FFE7FDF749F8FFE74FF480500A9040F2EE
:10330000C070C2F200000AA9FEF740FD18B1FFE745
:10331000FDF73AF8FFE740F2C070C2F20000FFF795
:1033200069F818B1FFE7FDF72FF8FFE700200890D4
:10333000099040F2C070C2F2000008A9FEF74EFBEF
:1033400018B1FFE7FDF720F8FFE7602001900022A9
:1033500002920392059240F2C070C2F2000001A9ED
:10336000FEF7AEFF18B1FFE7FDF70EF8FFE740F2FA
:10337000C070C2F2000001A90422FEF7A1FF18B13B
:10338000FFE7FDF701F8FFE740F2C070C2F200006E
:10339000FEF7FAFE0EB080BD80B58EB00021009120
:1033A0000D910C910B910A91099108910791069149
:1033B0000591049103910291019140F60800C2F237
:1033C000000040F20042C4F20002026009224260A2
:1033D000816040F2DF12C26001618161FEF76CFB27
:1033E00018B1FFE7FCF7D0FFFFE74FF480500A90D9
:1033F00040F60800C2F200000AA9FEF7C7FC18B1A7
:10340000FFE7FCF7C1FFFFE740F60800C2F200004B
:10341000FEF7F0FF18B1FFE7FCF7B6FFFFE700206B
:103420000890099040F60800C2F2000008A9FEF7D3
:10343000D5FA18B1FFE7FCF7A7FFFFE7602001907E
:10344000002202920392059240F60800C2F20000A8
:1034500001A9FEF735FF18B1FFE7FCF795FFFFE77D
:1034600040F60800C2F2000001A90422FEF728FF7E
:1034700018B1FFE7FCF788FFFFE740F60800C2F24B
:10348000000001A90822FEF71BFF18B1FFE7FCF7B7
:103490007BFFFFE740F60800C2F2000001A90C2202
:1034A000FEF70EFF18B1FFE7FCF76EFFFFE740F6EF
:1034B0000800C2F20000FEF767FE0EB080BD0000FB
:1034C00080B58EB0002100910D910C910B910A9165
:1034D0000991089107910691059104910391029138
:1034E000019140F65000C2F2000040F60002C4F222
:1034F00000020260416081604FF6FF72C2600161AC
:103500008161FEF7D9FA18B1FFE7FCF73DFFFFE74D
:103510004FF480500A9040F65000C2F200000AA911
:10352000FEF734FC18B1FFE7FCF72EFFFFE740F68B
:103530005000C2F20000FEF75DFF18B1FFE7FCF794
:1035400023FFFFE700200890099040F65000C2F2E8
:10355000000008A9FEF742FA18B1FFE7FCF714FFD4
:10356000FFE760200190002002900390059040F654
:103570005000C2F2000001A90822FEF7A1FE18B116
:10358000FFE7FCF701FFFFE740F65000C2F2000042
:1035900001A90C22FEF794FE18B1FFE7FCF7F4FE38
:1035A000FFE740F65000C2F20000FEF7EDFD0EB05E
:1035B00080BD000080B582B040F69800C2F20000E5
:1035C000019043F60001C4F2010101604FF416516D
:1035D000416000218160C16001610C224261816112
:1035E000C161FFF7B5FA18B1FFE7FCF7CDFEFFE7C1
:1035F00002B080BD80B582B040F6DC00C2F20000AF
:10360000019044F20041C4F2000101604FF41651F0
:10361000416000218160C16001610C2242618161D1
:10362000C161FFF795FA18B1FFE7FCF7ADFEFFE7C0
:1036300002B080BD80B582B040F62010C2F200001A
:10364000019044F60001C4F2000101604FF4E13141
:10365000416000218160C16001610C224261816191
:10366000C161FFF775FA18B1FFE7FCF78DFEFFE7C0
:1036700002B080BDFFE7FEE77047000088B007900A
:1036800006910592079800F0070004900498C0F195
:103690000700052803D3FFE70420019004E0049805
:1036A000C0F107000190FFE70198039004980430EF
:1036B000062803D8FFE70020009003E004980338B1
:1036C0000090FFE70098029006980399012202FA01
:1036D00001F101390840029B984005999A40013A4E
:1036E0001140084308B070477047000082B0019055
:1036F000019840F20001C2F200010968C90844F6CD
:10370000D352C1F26202A1FB022189094843009011
:10371000FFE700BFFFE70098411E00910028F8D1A5
:10372000FFE702B0704700007047000080B582B02C
:10373000009000980138B0F1807F03D3FFE70120AB
:10374000019019E0009801384EF21401CEF2000108
:1037500008604FF0FF300F2100F068FD4EF21801B5
:10376000CEF20001002008604EF21002CEF20002FC
:10377000072111600190FFE7019802B080BD0000B1
:1037800080B5FDF75BFB80BD80B590B006A80090CA
:103790002821FCF75EFD0098002205920492039216
:1037A00002920192092106914FF48031079108920B
:1037B00001220A920C9202220D920E914FF4E01116
:1037C0000F91FDF7BDFD18B1FFE7FCF7DDFDFFE749
:1037D0000F20019002210291002003904FF480629B
:1037E0000492059001A8FDF7E3FB18B1FFE7FCF791
:1037F000CBFDFFE710B080BD41F20002C4F202022F
:10380000106840F00100106041F20401C4F20201AE
:1038100008680023CFF6FF031840086010684FF6D1
:10382000FF73CFF6F66318401060106820F4802014
:103830001060086820F4FE00086041F20801C4F23C
:1038400002014FF41F0008604EF60851CEF200014D
:103850004FF000600860704780B540F27470C2F2AB
:103860000000FEF753FB80BD83B0029001910298E7
:1038700000680090029842F60041C4F201018842BB
:1038800015D0FFE70298B0F1804F10D0FFE7029803
:1038900040F20041C4F20001884208D0FFE70298DC
:1038A00040F60001C4F2000188420AD1FFE7009807
:1038B00020F0700000900198416800980843009043
:1038C000FFE7029842F60041C4F20101884215D098
:1038D000FFE70298B0F1804F10D0FFE7029840F266
:1038E0000041C4F20001884208D0FFE7029840F688
:1038F0000001C4F2000188420AD1FFE7009820F4D9
:10390000407000900198C168009808430090FFE75C
:10391000009820F0800001994969084300900098C0
:1039200002990860019880680299C862019800684D
:1039300002998862029842F60041C4F2010188426D
:1039400005D1FFE70198006902990863FFE7029932
:103950000120486103B0704784B003900291019246
:10396000029800F01F01012088400090009A0399FE
:10397000086A904308620198029901F01F0100FA59
:1039800001F20399086A1043086204B0704700000E
:1039900085B004900391029201930498806800908E
:1039A000009820F47F40009003980299019A41EA20
:1039B0000221014300980843009000980499886010
:1039C00005B0704783B00290019102988068009022
:1039D000009820F07000009001980099084340F092
:1039E0000700009000980299886003B070470000BB
:1039F00085B0049003910499086A20F001000862E0
:103A00000498006A019004984068009004988069C6
:103A10000290029820F070000290029820F00300BB
:103A2000029003980168029808430290019820F0E0
:103A3000020001900398816801980843019004985E
:103A400042F60041C4F2010188420ED1FFE701981D
:103A500020F0080001900398C16801980843019084
:103A6000019820F004000190FFE7049842F600411D
:103A7000C4F20101884213D1FFE7009820F480705E
:103A80000090009820F4007000900398416900981D
:103A90000843009003988169009808430090FFE76D
:103AA00000980499486002980499886103984068D6
:103AB0000499486301980499086205B070470000B2
:103AC00085B0049003910499086A20F01000086200
:103AD0000498006A019004984068009004988069F6
:103AE0000290029820F4E0400290029820F4407086
:103AF000029003980168029840EA01200290019820
:103B000020F02000019003988168019840EA01109C
:103B10000190049842F60041C4F2010188420FD19D
:103B2000FFE7019820F0800001900398C168019898
:103B300040EA01100190019820F040000190FFE759
:103B4000049842F60041C4F20101884215D1FFE712
:103B5000009820F480600090009820F400600090AD
:103B600003984169009840EA8100009003988169B8
:103B7000009840EA81000090FFE7009804994860AF
:103B800002980499886103984068049988630198B1
:103B90000499086205B0704785B0049003910499B8
:103BA000086A20F4807008620498006A0190049802
:103BB000406800900498C0690290029820F070005C
:103BC0000290029820F00300029003980168029886
:103BD00008430290019820F40070019003988168D6
:103BE000019840EA01200190049842F60041C4F295
:103BF000010188420FD1FFE7019820F40060019095
:103C00000398C168019840EA01200190019820F4CE
:103C100080600190FFE7049842F60041C4F2010180
:103C2000884215D1FFE7009820F48050009000985A
:103C300020F40050009003984169009840EA011078
:103C4000009003988169009840EA01100090FFE716
:103C500000980499486002980499C86103984068E4
:103C60000499C86301980499086205B07047000080
:103C700085B0049003910499086A20F4805008628A
:103C80000498006A01900498406800900498C06904
:103C90000290029820F4E0400290029820F44070D4
:103CA000029003980168029840EA0120029001986E
:103CB00020F40050019003988168019840EA013097
:103CC0000190049842F60041C4F2010188420BD1F0
:103CD000FFE7009820F48040009003984169009825
:103CE00040EA81100090FFE700980499486002982C
:103CF0000499C8610398406804990864019804997C
:103D0000086205B07047000085B0049003910292EC
:103D10000498006A00900499086A20F00100086283
:103D2000049880690190019820F0F00001900299B8
:103D3000019840EA01100190009820F00A000090DC
:103D400003990098084300900198049988610098AD
:103D50000499086205B0704785B0049003910292FF
:103D60000499086A20F010000862049880690190A4
:103D70000498006A0090019820F470400190029924
:103D8000019840EA01300190009820F0A0000090D6
:103D90000399009840EA0110009001980499886105
:103DA00000980499086205B07047000080B582B0A1
:103DB00001900198406A009000990020C885009900
:103DC000C8840098FEF7B0FC02B080BD81B00090BE
:103DD00000980168C86820F49070C8600098016875
:103DE000486920F0010048610098006B012807D164
:103DF000FFE700980168C86820F01000C860FFE77E
:103E00000099202081F83E0000990020086301B04D
:103E10007047000080B582B0019001980168C868C1
:103E200020F04000C8600199202081F83D000198F1
:103E3000FFF7F0F8002002B080BD000080B586B02A
:103E40000490049890F83E00222840F09480FFE708
:103E500004988068B0F5805F15D1FFE70498006989
:103E600088B9FFE7002003900498806A02900498C4
:103E7000006840686FF35F20029908800499886A9F
:103E80000230886225E00498806A03900020029046
:103E900004988068B0F5805F08D0FFE704988068D8
:103EA00050B9FFE70498006930B9FFE7049800684B
:103EB00040680399087007E004980068406800F0C3
:103EC0007F0003990870FFE70499886A01308862CF
:103ED000FFE70499C88D0138C8850004002846D141
:103EE000FFE704980168C86820F02000C8600498C3
:103EF0000168C86820F48070C86004980168486947
:103F000020F0010048610499202081F83E000498C7
:103F1000006B012823D1FFE704990020086304986F
:103F20000168C86820F01000C86004980068006844
:103F3000C00600280ED5FFE7FFE700200190049897
:103F4000006800680190049800684068019001983A
:103F5000FFE7FFE70498818DFEF7E0FB03E004989C
:103F6000FEF772FFFFE700208DF8170007E0002042
:103F70008DF8170003E002208DF81700FFE79DF889
:103F8000170006B080BD000080B584B00390039890
:103F90000068006920F44050039A1168D268104309
:103FA0000861039988680A694969104308430290C7
:103FB00003980068C06841F20C6188430299084385
:103FC00003990968C86003980068406920F440704C
:103FD000039A11689269104348610398006843F698
:103FE0000001C4F20101884204D1FFE7FDF724F982
:103FF000019003E0FDF70EF90190FFE70198192108
:104000004843039A116852689200B0FBF2FC48F2F0
:104010001F52C5F2EB12ACFB02304309642003FBD4
:1040200010CC322000EB0C10A0FB0202F02000EAC2
:10403000521000EB0310C2F343121044886004B026
:1040400080BD000083B002900191ADF8022001987C
:1040500002998862BDF8020002998885BDF80200C5
:104060000299C8850299002008640299222081F8EB
:104070003E00FFE70299002081F83C00FFE702982C
:104080000168C86840F48070C86002980168486997
:1040900040F00100486102980168C86840F02000C3
:1040A000C860002003B0704783B00190019890F879
:1040B0003D0021283AD1FFE701988068B0F5805F84
:1040C00013D1FFE70198006978B9FFE70198006A0A
:1040D0000090009800886FF35F200199096848609C
:1040E0000199086A0230086208E0019A106A411CCE
:1040F00011620078019909684860FFE70199C88C4E
:104100000138C884000468B9FFE701980168C868ED
:1041100020F08000C86001980168C86840F0400045
:10412000C860FFE700208DF80B0003E002208DF847
:104130000B00FFE79DF80B0003B0704780B540F619
:104140009800C2F20000FEF761FB80BD80B540F62A
:10415000DC00C2F20000FEF759FB80BD80B540F6DE
:104160002010C2F20000FEF751FB80BD84B0039026
:10417000ADF80A1020208DF809000020ADF80600E7
:10418000FFE7BDF80600BDF80A10884229DAFFE70C
:104190000398BDF80610405C612810DBFFE7039828
:1041A000BDF80610405C7A2809DCFFE70399BDF8EA
:1041B0000620885C20388854C0B2009005E003983F
:1041C000BDF80610405C0090FFE700980399BDF829
:1041D00006208854FFE7BDF806000130ADF8060060
:1041E000CFE704B070470000FFE7FEE781B08DF82D
:1041F00003009DF9030000280ED4FFE79DF903108A
:1042000001F01F02012090404A094EF20011CEF247
:10421000000141F82200FFE701B070474EF60C5054
:10422000CEF200000068C0F30220704782B08DF823
:10423000070000919DF9070000280AD4FFE70098C5
:1042400000019DF907104EF20042CEF200028854A0
:104250000BE0009800019DF8071001F00F014EF6E9
:104260001452CEF200028854FFE702B070470000FB
:1042700083B00290029800F0070000904EF60C51B7
:10428000CEF200010868019001984FF6FF0210403D
:1042900001900198009A40EA02200022C0F2FA52EE
:1042A000104301900198086003B0704785B00490F6
:1042B0000391ADF80A2001208DF809000020ADF827
:1042C0000400ADF80200FFE7BDF80400BDF80A10D5
:1042D000884280F28580FFE700208DF8070004986F
:1042E000BDF80210405C8DF808009DF808003028E9
:1042F00013DBFFE79DF8080039280EDCFFE79DF887
:1043000008104FF60050CFF6FF7000EB01119DF83A
:10431000070008438DF807001CE09DF808004128BD
:1043200013DBFFE79DF8080046280EDCFFE79DF849
:1043300008104FF69040CFF6FF7000EB01119DF88A
:10434000070008438DF8070003E000208DF80900FE
:1043500046E0FFE70498BDF80210084440788DF865
:1043600008009DF8080030280FDBFFE79DF80800E3
:1043700039280ADCFFE79DF80800A0F130019DF81C
:10438000070008438DF8070018E09DF80800412851
:104390000FDBFFE79DF8080046280ADCFFE79DF8E1
:1043A0000800A0F137019DF8070008438DF80700C9
:1043B00003E000208DF8090012E0FFE79DF80700F8
:1043C0000399BDF804208854FFE7BDF804000130CC
:1043D000ADF80400BDF802000230ADF8020073E74A
:1043E0009DF8090005B0704784B003900291ADF8C4
:1043F00006200020ADF80200ADF80000FFE7BDF890
:104400000200BDF80610884249DAFFE70398BDF8BC
:104410000210405C8DF805009DF8050000098DF83C
:1044200004009DF80400092808DCFFE79DF804005B
:1044300030300299BDF80020885407E09DF8040050
:1044400037300299BDF800208854FFE79DF8050039
:1044500000F00F008DF804009DF80400092809DC25
:10446000FFE79DF8040030300299BDF800201144A8
:10447000487008E09DF8040037300299BDF800202C
:1044800011444870FFE7FFE7BDF802000130ADF8C6
:104490000200BDF800000230ADF80000AFE704B044
:1044A0007047000086B005900491ADF80E2002938D
:1044B0000020ADF80400ADF80200FFE7BDF80400ED
:1044C000BDF80E10884249DAFFE70598BDF80410E0
:1044D000405C8DF807009DF8070000098DF8060084
:1044E0009DF80600092808DCFFE79DF8060030303B
:1044F0000499BDF80220885407E09DF80600373083
:104500000499BDF802208854FFE79DF8070000F0E9
:104510000F008DF806009DF80600092809DCFFE76A
:104520009DF8060030300499BDF80220114448700F
:1045300008E09DF8060037300499BDF802201144C8
:104540004870FFE7FFE7BDF804000130ADF8040054
:10455000BDF802000230ADF80200AFE7BDF80E2052
:104560000299088800EB4200088006B070470000FE
:1045700080B500F0B9FD01F0BDFB80BD84B00290B4
:10458000ADF806100020ADF802000299BDF8062033
:10459000114411F8021CADF80010BDF8001009021A
:1045A000ADF800100299BDF80620114411F8012C55
:1045B000BDF800101143ADF80010ADF80400FFE79E
:1045C000BDF80400BDF806100239884210DAFFE792
:1045D0000298BDF80410415CBDF802000844ADF833
:1045E0000200FFE7BDF804000130ADF80400E7E782
:1045F000BDF80200BDF80010884204D1FFE7012099
:104600008DF80F0003E000208DF80F00FFE79DF804
:104610000F0004B07047000086B00490ADF80E1093
:1046200041F22100C0F2010001900020029080219F
:104630008DF80310ADF80000FFE7BDF80000BDF8ED
:104640000E1088422EDAFFE702984000029004988C
:10465000BDF80010405C9DF80310084205D0FFE74C
:10466000029840F001000290FFE79DF80A00C007A1
:1046700028B1FFE70199029848400290FFE79DF8B2
:10468000030040088DF803009DF8030048B9FFE7D8
:1046900080208DF80300BDF800000130ADF8000067
:1046A000FFE7CAE7029820B9FFE701208DF817005D
:1046B00003E000208DF81700FFE79DF8170006B013
:1046C0007047000080B582B041F27230C2F2000043
:1046D000008818B9FFE7FFF74BFFDCE041F27930C3
:1046E000C2F20000007830B3FFE741F27530C2F249
:1046F00000000078F8B1FFE741F27630C2F2000026
:104700000078C0B1FFE741F27430C2F200000078D7
:1047100088B1FFE741F27830C2F20000007850B172
:10472000FFE741F27730C2F20000007818B1FFE7EE
:10473000FFF71EFFAEE041F27930C2F200000078D0
:10474000012823D0FFE741F27530C2F20000007863
:10475000F8B9FFE741F27630C2F200000078C0B944
:10476000FFE741F27430C2F20000007888B9FFE739
:1047700041F27830C2F20000007850B9FFE741F210
:104780007730C2F20000007818B9FFE7FFF7F0FEBB
:104790007FE041F27930C2F200000078002874D145
:1047A000FFE741F27530C2F200000078012820D006
:1047B000FFE741F27630C2F200000078012818D0FD
:1047C000FFE741F27430C2F200000078012810D0F7
:1047D000FFE741F27830C2F200000078012808D0EB
:1047E000FFE741F27730C2F20000007801284CD197
:1047F000FFE741F27530C2F20000007838B1FFE700
:10480000002001F095FA322000F08CFC3CE041F2EF
:104810007630C2F20000007838B1FFE7282001F0BE
:1048200087FA322000F07EFC2DE041F27430C2F2B3
:104830000000007840B1FFE72820019001F078FAED
:10484000019800F06FFC1DE041F27830C2F20000E8
:10485000007838B1FFE7322001F06AFA282000F032
:1048600061FC0EE041F27730C2F20000007838B10E
:10487000FFE7322001F05CFA002000F053FCFFE774
:10488000FFE7FFE7FFE7FFE702E0FFF771FEFFE763
:10489000FFE7FFE7FFE702B080BD000080B588B00A
:1048A0000790FCF7C3F8FF208DF81B000020019053
:1048B00002900798049001200390059002A801A996
:1048C000FBF78EFF20B9FFE700208DF81B00FFE704
:1048D000FCF70CF89DF81B0008B080BD80B588B0CF
:1048E00007900691FCF7A2F8FF208DF81700002032
:1048F0000090019007980390012002900698049080
:1049000001A86946FBF76CFF20B9FFE700208DF88E
:104910001700FFE7FBF7EAFF9DF8170008B080BD1E
:1049200085B004900391ADF80A20BDF80A00800814
:10493000ADF800000020ADF80200FFE7BDF802006E
:10494000BDF8001088422BDAFFE70498BDF802108A
:1049500050F82100019001980399BDF8022001F858
:1049600022000198000A0399BDF8022001EB8201A0
:104970004870BDF806000399BDF8022001EB8201E2
:1049800088709DF807000399BDF8022001EB8201B1
:10499000C870FFE7BDF802000130ADF80200CDE7B6
:1049A00005B0704780B588B0079006910592002049
:1049B00002908DF81300FCF739F802980390FFE796
:1049C0000399059A00209142019007D2FFE79DF8D4
:1049D0001300B0FA80F040090190FFE70198C0078A
:1049E000D0B3FFE707984FF6EF71C0F60101884298
:1049F00007D3FFE79DF8130040F001008DF8130086
:104A000025E007990698039A50F8222002200023F7
:104A1000FBF776FF38B1FFE79DF8130040F0020086
:104A20008DF81300FFE70698039950F821000799C5
:104A30000968884207D0FFE79DF8130040F00400A2
:104A40008DF81300FFE7079804300790FFE7FFE7B2
:104A5000039801300390B3E7FBF748FF9DF813007C
:104A600008B080BD80B588B007900691ADF81620DB
:104A700000208DF8150001218DF80110BDF81610E9
:104A80008908ADF8021007990491ADF80E00FFE710
:104A9000BDF80E00BDF8021088423FDAFFE7069825
:104AA000BDF80E1010F8210002900698BDF80E1007
:104AB00000EB81004178029840EA012002900698BC
:104AC000BDF80E1000EB81008178029840EA0140A9
:104AD00002900698BDF80E1000EB8100C178029894
:104AE00040EA0160029002980190049801A9012215
:104AF000FFF758FF8DF815009DF8150020B1FFE76E
:104B000000208DF801000AE0049804300490FFE7CB
:104B1000BDF80E000130ADF80E00B9E7FFE79DF8D3
:104B2000010008B080BD000080B584B00390002073
:104B30008DF80500039840F20241FFF71FFD8DF844
:104B400005009DF8050008B9FFE76CE0039840F206
:104B50000441FFF761FD8DF805009DF8050008B9D7
:104B6000FFE760E040F20410C2F200000090002075
:104B7000ADF80600FFE7BDF80600FF2837DCFFE7C9
:104B80000398BDF8061000EB8100C07802900298EF
:104B9000000202900398BDF8061000EB81008178B6
:104BA0000298084302900298000202900398BDF810
:104BB000061000EB810041780298084302900298A9
:104BC000000202900398BDF8061010F82110029818
:104BD0000843029002980099BDF8062041F822008F
:104BE000FFE7BDF806000130ADF80600C3E740F26C
:104BF000FC00C2F20000006800994FF48072FFF7D9
:104C0000D1FE20B1FFE700208DF805000BE040F257
:104C1000FC01C2F20001086800F580600860012014
:104C20008DF80500FFE79DF8050004B080BD000089
:104C300080B5C4B040F63620C2F200000A300390BE
:104C400004A80290039802994FF48072FFF72EFB9C
:104C50008DF807009DF81000552804D0FFE70020CC
:104C60008DF8070029E09DF81100AA2804D0FFE77D
:104C700000208DF807001FE09DF80A01552804D098
:104C8000FFE700208DF8070015E09DF80B01AA282A
:104C900004D0FFE700208DF807000BE040F26E50D3
:104CA000C2F2000004A94FF48072FBF78DFA02F003
:104CB000EDFBFFE7FFE7FFE7FFE79DF8070044B0E4
:104CC00080BD000080B582B040F60040C4F2010013
:104CD00001901021FCF768F80146019841F2753205
:104CE000C2F2000211700821FCF75EF841F2763141
:104CF000C2F20001087040F60000C4F2010000900A
:104D00004FF40041FCF750F80146009841F274322C
:104D1000C2F2000211704FF48051FCF745F80146D1
:104D2000009841F27832C2F2000211704FF4006133
:104D3000FCF73AF80146019841F27732C2F20002DC
:104D400011702021FCF730F80146019841F27932C8
:104D5000C2F2000211704021FCF726F841F27031D6
:104D6000C2F20001087002B080BD000040F21B508A
:104D7000C2F2000003210170007840F21C51C2F21F
:104D80000001087040F21851C2F2000100200870C2
:104D900040F21951C2F20001087040F22451C2F2EF
:104DA0000001087040F26E71C2F20001087040F21A
:104DB0001A51C2F20001087040F22351C2F2000100
:104DC0000120087040F22251C2F20001087041F245
:104DD0007C31C2F20001088041F27E31C2F2000152
:104DE000087040F22551C2F20001087040F2707163
:104DF000C2F20001642008807047000080B540F6D0
:104E00000800C2F200000168C96A0A0A40F22C5187
:104E1000C2F200010A700068C06A487008788870A1
:104E20004878C87000220A714A7112208871C871CE
:104E30000A724A728A72CA72087348738A73CA7392
:104E40000A744A748874C8740A754A758A75CA7572
:104E5000087648768A76CA76087701224A77887774
:104E600040F24B50C2F200001F22FBF7ADF940F2B6
:104E70006A51C2F200016420088080BD80B584B010
:104E800040F26E51C2F2000155200870AA2048700D
:104E900000208DF80F00FFE79DF80F00042800F3B5
:104EA000E980FFE741F2883302939DF80B009DF8FB
:104EB0000F2040F26E51C2F200010831019102EB65
:104EC000820201F83200BDF80A009DF80F2002EBC3
:104ED000820201EBC20250700298000A9DF80F2076
:104EE00002EB820201EBC202907002989DF80F2043
:104EF00002EB820201EBC202D0709DF80F0000EBC2
:104F0000800001EBC0020120107102939DF80B207C
:104F10009DF80FC00CEB8C0C01EBCC0C8CF8052031
:104F2000BDF80A209DF80FC00CEB8C0C01EBCC0CEB
:104F30008CF80620029A120A9DF80FC00CEB8C0C1C
:104F400001EBCC0C8CF80720029A9DF80FC00CEBFB
:104F50008C0C01EBCC0C8CF808209DF80F2002EB98
:104F6000820201EBC20C00228CF8092002939DF80A
:104F70000BC09DF80FE00EEB8E0E01EBCE0E8EF8FF
:104F80000AC0BDF80AC09DF80FE00EEB8E0E01EBD3
:104F9000CE0E8EF80BC0DDF808C04FEA1C2C9DF831
:104FA0000FE00EEB8E0E01EBCE0E8EF80CC0DDF88E
:104FB00008C09DF80FE00EEB8E0E01EBCE0E8EF8C2
:104FC0000DC09DF80FC00CEB8C0C01EBCC0C8CF8D9
:104FD0000E2002939DF80B309DF80FC00CEB8C0C4B
:104FE00001EBCC0C8CF80F30BDF80A309DF80FC0E7
:104FF0000CEB8C0C01EBCC0C8CF81030029B1B0AD8
:105000009DF80FC00CEB8C0C01EBCC0C8CF8113024
:10501000029B9DF80FC00CEB8C0C01EBCC0C8CF8B8
:1050200012309DF80F3003EB830301EBC303DA74F6
:105030009DF80F2002EB820201EBC20210754FF4C3
:10504000FA7002900298000A9DF80F2002EB82028B
:1050500001EBC202507502989DF80F2002EB82020C
:1050600001EBC2018875FFE79DF80F0001308DF854
:105070000F0011E7052002900298000A40F26E51DD
:10508000C2F2000181F8D000029881F8D1003220EC
:1050900081F8D20081F8D30081F8D40081F8D500DE
:1050A00081F8D60081F8D70081F8D80081F8D900BE
:1050B00081F8DA0081F8DB00012081F8DC00FF20B4
:1050C00081F8DD00552081F8DE0081F8FA00AA2081
:1050D00081F8FB0040F26E60C2F200004FF4807273
:1050E000FBF772F804B080BD40F22C50C2F2000011
:1050F000007938B1FFE740F22C51C2F200010020E4
:105100000871FFE740F22C50C2F20000807A38B1FB
:10511000FFE740F22C51C2F2000100208872FFE745
:105120007047000081B08DF803009DF803006428EB
:1051300004DBFFE763208DF80300FFE740F22C510A
:10514000C2F20001012008719DF80300887101B0CE
:105150007047000080B582B00020019000F03CFD57
:10516000F0B9FFE7FFF78AFE40F26E50C2F200008E
:1051700090F8D010ADF80210BDF802100902ADF899
:10518000021090F8D110BDF802000843ADF80200FB
:10519000BDF8020040F2C071C2F200014860FFE7B2
:1051A00040F26E60C2F2000040F26E51C2F20001A5
:1051B0004FF48072FBF708F8FBF74EFEFEF7E4FAB7
:1051C000FDF76EFFFEF7F6F9FEF714FAFEF728F882
:1051D000FEF7E2F8FEF72EFAFEF768F8FEF770F930
:1051E000FFE700F0BBF9FCE780B540F26E70C2F259
:1051F0000000007801280BD1FFE740F26E71C2F287
:1052000000010020087000BF02F040F900BFFFE776
:1052100040F26E50C2F2000090F8D00040F26E6191
:10522000C2F2000191F8D01048400FD1FFE740F2E0
:105230006E50C2F2000090F8D10040F26E61C2F2EE
:10524000000191F8D110484002D0FFE7FFE7FEE7E8
:1052500080BD000080B584B040F67810C2F2000036
:105260000088002845D1FFE741F2AE70C2F200008D
:105270000078B0B1FFE740F20450C2F200000078BD
:1052800078B9FFE740F67811C2F2000114200880D7
:1052900041F20000C4F201004FF40051FBF79CFD05
:1052A00026E040F20450C2F20000007801280FD13D
:1052B000FFE740F67811C2F200010520088041F2B4
:1052C0000000C4F201004FF40051FBF785FD0EE031
:1052D00040F67811C2F200016420088041F200001B
:1052E000C4F201004FF40051FBF776FDFFE7FFE742
:1052F000FFE741F27030C2F20000007841F27131F4
:10530000C2F200010978484011D0FFE741F2703045
:10531000C2F20000007841F27131C2F2000108705F
:1053200041F27231C2F20001C8200880FFE741F269
:105330007B30C2F20000007841F27A31C2F2000103
:105340000978484066D0FFE741F27A30C2F20000A7
:10535000017841F27B30C2F2000001700078A0B900
:10536000FFE740F60040C4F201004FF40041002284
:105370000292FBF745FD029A40F60000C4F20100DC
:105380004FF48071FBF73CFD43E041F27B30C2F209
:1053900000000078012813D1FFE740F60040C4F276
:1053A00001004FF400410122FBF72AFD40F6000006
:1053B000C4F201004FF480710022FBF721FD27E0C9
:1053C00041F27A30C2F20000007802280CD0FFE7E8
:1053D00041F27A31C2F200010220087041F27B31C1
:1053E000C2F200010870FFE740F60040C4F201007D
:1053F0004FF4004101220192FBF702FD019A40F6B1
:105400000000C4F201004FF48071FBF7F9FCFFE7E4
:10541000FFE7FFE740F63420C2F2000000880128D1
:105420000DD1FFE740F63421C2F2000100200880D0
:1054300040F63021C2F2000101200870FFE741F27E
:105440006E30C2F20000008801280DD1FFE741F262
:105450006E31C2F200010020088041F26A31C2F2CE
:10546000000101200870FFE740F26F70C2F20000F7
:10547000007838B1FFE740F26F71C2F200010020FE
:105480000870FFE740F21B50C2F20000007840F2C3
:105490001C51C2F20001097848400ED0FFE740F2EB
:1054A0001B50C2F20000017840F21C52C2F200020E
:1054B0001170007800F06AFFFFE740F67610C2F244
:1054C00000000078002847D0FFE740F67611C2F2CE
:1054D0000001002008708DF80F009DF80F20501C6F
:1054E0008DF80F0040F21050C2F2000000905421DD
:1054F00081549DF80F20531C8DF80F3081549DF876
:105500000F20511C8DF80F107E2181549DF80F2023
:10551000511C8DF80F10412181549DF80F20511C12
:105520008DF80F105521815440F20E51C2F2000146
:105530000A789DF80F3003F1010C8DF80FC0C254AA
:1055400049789DF80F20531C8DF80F3081549DF839
:105550000F1001F0CFF9FFE704B080BD80B582B035
:1055600040F27470C2F20000FCF7B8FB40F69800FD
:10557000C2F2000040F6B011C2F200018022019296
:10558000FDF726FC40F6DC00C2F2000040F64E615A
:10559000C2F200014FF48362FDF71AFC019A40F653
:1055A0002010C2F2000041F2EA21C2F20001FDF730
:1055B0000FFC40F22851C2F2000140F2D6200860F0
:1055C00040F2C070C2F20000FCF736FBFFF7CEFBE2
:1055D000FFF714FC00F060FB40F26E50C2F20000D6
:1055E00090F8DD0040F27501C2F200010870FFE79B
:1055F000FFE740F2BC70C2F20000007808B9FFE794
:10560000F7E740F2BC71C2F200010020087000BF51
:10561000FFF720FE01F0ACF9FFF7E6FD00F09EFC7D
:1056200000F09AFDFFF74EFBFFF74CF800F002F890
:10563000DEE7000080B586B040F26A50C2F200009A
:105640000088002840F0C682FFE740F22C50C2F2EA
:1056500000000079002800F08580FFE740F22C511F
:10566000C2F200010879497948404FD0FFE740F283
:105670002C50C2F200008079002846D0FFE740F2AB
:105680002C51C2F20001087948718879C8710878F4
:105690008978484009D1FFE740F22C51C2F200015D
:1056A0004878C97848401BD0FFE740F22C50C2F23E
:1056B0000000017881704178C1700178ADF8141054
:1056C000BDF814100902ADF814104178BDF81400AB
:1056D0000843ADF81400BDF8140000F009FEFFE720
:1056E00040F22C50C2F2000080798DF817009DF82E
:1056F00017000821049100F0AFFD049940F608005E
:10570000C2F20000FCF7CCFEFFE718E040F22C519B
:10571000C2F200018879C97948400FD0FFE740F212
:105720002C50C2F200008179C17180798DF8170088
:105730009DF81700082100F08FFDFFE7FFE740F616
:105740000000C4F201002021FBF72EFB48B9FFE75F
:1057500040F60000C4F2010020210122FBF750FBBB
:10576000FFE717E040F22C51C2F2000108794979B5
:1057700048400ED0FFE740F22C51C2F200010879F8
:10578000487140F60800C2F200000821FCF738FF1B
:10579000FFE7FFE740F22C50C2F20000807A0028B9
:1057A00000F08580FFE740F22C51C2F20001887AB8
:1057B000C97A48404FD0FFE740F22C50C2F20000B7
:1057C000007B002846D0FFE740F22C51C2F20001D6
:1057D000887AC872087B487308788978484009D16C
:1057E000FFE740F22C51C2F200014878C9784840E6
:1057F0001BD0FFE740F22C50C2F20000017881700C
:105800004178C1700178ADF81410BDF81410090288
:10581000ADF814104178BDF814000843ADF8140039
:10582000BDF8140000F064FDFFE740F22C50C2F216
:105830000000007B8DF817009DF817000C210391E4
:1058400000F00AFD039940F60800C2F20000FCF7E0
:1058500027FEFFE718E040F22C51C2F20001087B5E
:10586000497B48400FD0FFE740F22C50C2F20000C5
:10587000017B4173007B8DF817009DF817000C2108
:1058800000F0EAFCFFE7FFE740F60000C4F2010089
:105890002021FBF789FA48B9FFE740F60000C4F27F
:1058A000010020210122FBF7ABFAFFE717E040F2ED
:1058B0002C51C2F20001887AC97A48400ED0FFE725
:1058C00040F22C51C2F20001887AC87240F60800FA
:1058D000C2F200000C21FCF793FEFFE7FFE740F265
:1058E0002C50C2F20000007C00287BD0FFE740F281
:1058F0002C51C2F20001087C497C484046D0FFE7A9
:1059000040F22C51C2F20001087C4874887CC874B3
:1059100008788978484009D1FFE740F22C51C2F25B
:1059200000014878C97848401BD0FFE740F22C506E
:10593000C2F20000017881704178C1700178ADF841
:105940001410BDF814100902ADF814104178BDF818
:1059500014000843ADF81400BDF8140000F0C8FCB2
:10596000FFE740F22C50C2F20000807C8DF8170057
:105970009DF817000421029100F06EFC029940F698
:105980000800C2F20000FCF78BFD18E040F22C5139
:10599000C2F20001887CC97C48400FD0FFE740F28A
:1059A0002C50C2F20000817CC174807C8DF81700FD
:1059B0009DF81700042100F04FFCFFE7FFE740F6D9
:1059C0000000C4F201001021FBF7EEF948B9FFE72F
:1059D00040F60000C4F2010010210122FBF710FA8A
:1059E000FFE717E040F22C51C2F20001087C497C2D
:1059F00048400ED0FFE740F22C51C2F20001087C73
:105A0000487440F60800C2F200000421FCF7F8FDDB
:105A1000FFE7FFE740F22C50C2F20000807D002833
:105A20007BD0FFE740F22C51C2F20001887DC97D96
:105A3000484046D0FFE740F22C51C2F20001887D79
:105A4000C875087E487608788978484009D1FFE70C
:105A500040F22C51C2F200014878C97848401BD06E
:105A6000FFE740F22C50C2F20000017881704178CB
:105A7000C1700178ADF81410BDF814100902ADF82A
:105A800014104178BDF814000843ADF81400BDF8B7
:105A9000140000F02DFCFFE740F22C50C2F2000091
:105AA000007E8DF817009DF817000021019100F08D
:105AB000D3FB019940F60800C2F20000FCF7F0FCAD
:105AC00018E040F22C51C2F20001087E497E4840A5
:105AD0000FD0FFE740F22C50C2F20000017E417669
