:020000040800F2
:10000000081E002089010008D5350008812F00084E
:10001000D1350008810300082D41000800000000D0
:10002000000000000000000000000000853600080D
:10003000850300080000000045360008DD36000892
:10004000A3010008A3010008A3010008A301000800
:10005000A3010008A3010008A3010008A3010008F0
:10006000A3010008A3010008A3010008A3010008E0
:10007000A3010008A3010008A3010008A3010008D0
:10008000A3010008A3010008A3010008A3010008C0
:10009000A3010008A3010008A3010008A3010008B0
:1000A000A3010008B5370008A3010008A301000858
:1000B000A3010008A3010008A3010008A301000890
:1000C000A3010008A3010008A3010008A301000880
:1000D000A3010008FD4000080D4100081D41000873
:1000E000A3010008A3010008A301000800F002F822
:1000F00000F03AF80AA090E8000C82448344AAF188
:100100000107DA4501D100F02FF8AFF2090EBAE885
:100110000F0013F0010F18BFFB1A43F0010318473B
:100120002472000044720000103A24BF78C878C1DD
:10013000FAD8520724BF30C830C144BF04680C60ED
:10014000704700000023002400250026103A28BF35
:1001500078C1FBD8520728BF30C148BF0B60704739
:100160001FB51FBD10B510BD00F0CFF81146FFF749
:10017000F7FF04F0FBFE00F0EDF803B4FFF7F2FF29
:1001800003BC00F0F5F80000094880470948004723
:10019000FEE7FEE7FEE7FEE7FEE7FEE7FEE7FEE737
:1001A000FEE7FEE704480549054A064B7047000094
:1001B00055370008ED00000808180020081E002030
:1001C000081A0020081A0020032A40F2308010F09C
:1001D000030C00F0158011F8013BBCF1020F6244E2
:1001E00098BF11F801CB00F8013B38BF11F8013B73
:1001F000A2F1040298BF00F801CB38BF00F8013B20
:1002000011F0030300F04F80083AC0F0088051F865
:10021000043B083A51F804CBA0E80810F5E7121D9A
:100220005CBF51F8043B40F8043BAFF30080D207B9
:1002300024BF11F8013B11F801CB48BF11F8012B85
:1002400024BF00F8013B00F801CB48BF00F8012BA8
:1002500070474FF0000200B5134694469646203989
:1002600022BFA0E80C50A0E80C50B1F12001BFF46F
:10027000F7AF090728BFA0E80C5048BF0CC05DF8D5
:1002800004EB890028BF40F8042B08BF704748BF23
:1002900020F8022B11F0804F18BF00F8012B704797
:1002A00070477047704710B5203AC0F00B80B1E836
:1002B0001850A0E81850B1E81850A0E81850203A9B
:1002C000BFF4F5AF5FEA027C24BFB1E81850A0E8A4
:1002D000185044BF18C918C0BDE810405FEA827CBE
:1002E00024BF51F8043B40F8043B08BF7047D207D5
:1002F00028BF31F8023B48BF11F8012B28BF20F876
:10030000023B48BF00F8012B7047754600F02CF8FF
:10031000AE4605006946534620F00700854618B0F2
:1003200020B5FFF73FFFBDE820404FF000064FF03B
:1003300000074FF000084FF0000BAC46ACE8C009D6
:10034000ACE8C009ACE8C009ACE8C00921F007017D
:100350008D46704710B50446AFF300802046BDE8D7
:100360001040FFF70ABF000000487047100000204F
:1003700001491820ABBEFEE72600020070470000CE
:10038000FFE7FEE770470000FFE7FEE781B000905F
:1003900040F6C011C2F200010020C86142F2100113
:1003A000C4F20201086840F004000860086840F0E8
:1003B0004000086001B0704781B0009040F6C01165
:1003C000C2F200010020C86142F21001C4F2020131
:1003D000086840F002000860009842F21402C4F27B
:1003E00002021060086840F04000086001B07047E9
:1003F00082B00190ADF8021040F6C011C2F20001C7
:100400000020C86142F21001C4F20201086840F005
:1004100001000860BDF802000199088002B0704731
:1004200081B000200090012040B9FFE742F21C009B
:10043000C4F202000068C00748B915E042F20C009F
:10044000C4F202000068C00600280DD5FFE740F6A0
:10045000C011C2F20001C86940F00200C8610098F2
:1004600040F010000090FFE7012040B9FFE742F2A2
:100470001C00C4F202000068C00748B915E042F24F
:100480000C00C4F202000068400700280DD5FFE709
:1004900040F6C011C2F20001C86940F00100C86115
:1004A000009840F004000090FFE7002040B9FFE70B
:1004B00042F21C00C4F202000068C00750B91CE000
:1004C00042F20C00C4F20200006840F2011108423E
:1004D00013D0FFE740F6C011C2F20001C86940F036
:1004E0000400C861FFE742F21C01C4F2020108687F
:1004F00020F001000860FFE7FFE7FFE7009840F207
:100500000111884209D1FFE742F21C01C4F2020145
:10051000086820F00100086006E0009842F20C0133
:10052000C4F202010860FFE7FFE701B07047000076
:1005300080B584B0029000F07BFC0190FFE742F2AE
:100540000C00C4F202000068C007A8B1FFE70298DF
:10055000013080B1FFE7029840B1FFE700F068FC8E
:100560000199401A0299884204D9FFE703208DF8C7
:100570000F0065E0FFE7E2E7012040B9FFE742F244
:100580001C00C4F202000068C00748B911E042F242
:100590000C00C4F2020000688006002809D5FFE7BD
:1005A000FFE742F20C01C4F2020120200860FFE7DD
:1005B000FFE7012040B9FFE742F21C00C4F202004D
:1005C0000068C00790BB08E042F20C00C4F20200D1
:1005D0000068C006002829D4FFE7002040B9FFE7E3
:1005E00042F21C00C4F202000068C007F0B909E042
:1005F00042F20C00C4F20200006840F2011108420D
:1006000014D1FFE7012040B9FFE742F21C00C4F219
:1006100002000068C00748B90EE042F20C00C4F2C4
:10062000020000684007002806D5FFE7FFF7F8FE44
:1006300001208DF80F0003E000208DF80F00FFE788
:100640009DF80F0004B080BD83B0019000208DF8AC
:100650000300019890F8210002280DD0FFE70199CE
:1006600004208863FFE70199002081F82000FFE75C
:1006700001208DF80B0021E001980168086820F046
:100680000E00086001980168086820F00100086009
:100690000198C16B026C012090404860FFE701990E
:1006A000012081F82100FFE70199002081F8200056
:1006B000FFE79DF803008DF80B00FFE79DF80B00A6
:1006C00003B0704780B588B0079000208DF81B00FC
:1006D000079890F82100022807D0FFE70799042027
:1006E000886301208DF81B0076E007980168086890
:1006F00020F00E00086007980168086820F00100EB
:100700000860079800680821C4F20201884203D1FA
:10071000FFE70120059047E0079800681C21C4F21C
:100720000201884203D1FFE71020049039E00798C6
:1007300000683021C4F20201884204D1FFE74FF47F
:10074000807003902AE0079800684421C4F20201F7
:10075000884204D1FFE74FF4805002901BE00798D5
:1007600000685821C4F20201884204D1FFE74FF427
:10077000803001900CE0079801686C22C4F20202FC
:100780004FF08070914208BF4FF480100190FFE756
:1007900001980290FFE702980390FFE70398049006
:1007A000FFE704980590FFE705980421C4F20201D1
:1007B00008600799012081F82100FFE707990020D0
:1007C00081F82000FFE70798406B20B1FFE707980A
:1007D000416B8847FFE7FFE79DF81B0008B080BD2D
:1007E00080B586B00490039101208DF80B000020A5
:1007F0000190FFE740F6C010C2F20000007E012821
:1008000004D1FFE702208DF817006AE040F6C0111E
:10081000C2F2000101200876FFE7FFE704980068B4
:10082000022819D1FFE74CF25030FFF781FE90B952
:10083000FFE70120FFF7AAFD4CF25030FFF778FEEA
:100840008DF80B0042F21001C4F20201086820F09A
:1008500004000860FFE737E04CF25030FFF768FE15
:1008600088BBFFE703994FF0FF3008600498806869
:100870000190FFE70198049A9168D26801EB822108
:1008800088421FD2FFE70198FFF796FD4CF25030E7
:10089000FFF74EFE8DF80B0042F21001C4F2020188
:1008A000086820F0020008609DF80B0020B1FFE707
:1008B00001980399086005E0FFE7019800F5806062
:1008C0000190D7E7FFE7FFE7FFE740F6C011C2F26C
:1008D000000100200876FFE79DF80B008DF8170057
:1008E000FFE79DF8170006B080BD000042F210013E
:1008F000C4F20201086840F08000086000207047E0
:1009000080B588B0069005910393029201208DF87E
:10091000070000208DF806008DF80500FFE740F67F
:10092000C010C2F20000007E012804D1FFE70220BF
:100930008DF81F0076E040F6C011C2F200010120E0
:100940000876FFE7FFE74CF25030FFF7F1FD8DF836
:1009500007009DF80700002857D1FFE706980128F7
:1009600004D1FFE701208DF805000CE0069802286D
:1009700004D1FFE702208DF8050003E004208DF884
:100980000500FFE7FFE700208DF80600FFE79DF870
:1009900006009DF80510884236DAFFE705989DF8B5
:1009A00006C000EB4C000299039A4FEA0C1E20236C
:1009B000A3EB0C1302FA03F321FA0EF119436FF0C3
:1009C0001F0303EB0C13DA40002B58BF114689B20A
:1009D000FFF70EFD4CF25030FFF7AAFD8DF807002F
:1009E00042F21001C4F20201086820F00100086020
:1009F0009DF8070008B1FFE706E0FFE79DF8060055
:100A000001308DF80600C2E7FFE7FFE740F6C011AE
:100A1000C2F2000100200876FFE79DF807008DF87C
:100A20001F00FFE79DF81F0008B080BD81B00020C7
:100A30008DF8030042F21000C4F2020000680006C4
:100A400000281CD5FFE742F20401C4F2020140F283
:100A50002310C4F26750086048F6AB10CCF6EF5094
:100A6000086042F21000C4F202000068000600288C
:100A700004D5FFE701208DF80300FFE7FFE79DF8AD
:100A8000030001B07047000090B00F900E9100205D
:100A90000D900990FFE70E9800680D99C840002856
:100AA00000F07F81FFE70D99012088400C900E989F
:100AB00000680C9908400B900B980C99884240F004
:100AC0006C81FFE70E9840680590002851D0FFE741
:100AD000059801283AD0FFE7059802283FD0FFE7A4
:100AE000059803285FD0FFE70598112832D0FFE76B
:100AF0000598122838D0FFE705980021C1F21101AE
:100B0000884236D0FFE705980021C1F212018842E1
:100B10002FD0FFE705980021C1F22101884228D09B
:100B2000FFE705980021C1F22201884221D0FFE7AA
:100B300005980021C1F2310188421AD0FFE70598DB
:100B40000021C1F23201884213D02FE00E98C06814
:100B500009902CE00E98C0680430099027E00E98A8
:100B6000C0680830099022E00E98C0680C300990E7
:100B70001DE00E98806818B9FFE70420099011E085
:100B80000E988068012806D1FFE7082009900C988C
:100B90000F99086105E0082009900C980F994861A9
:100BA000FFE7FFE703E00020099000E0FFE70B9874
:100BB000FF2803D8FFE70F98049003E00F98043054
:100BC0000490FFE7049808900B98FF2804D8FFE7EB
:100BD0000D988000039006E00D996FF01F0000EB68
:100BE00081000390FFE70398079008980068079A30
:100BF0000F21914088430999914008430899086062
:100C00000E98C079C006002840F1C680FFE7FFE7D4
:100C100041F21800C4F20200016841F001010160D4
:100C2000006800F0010006900698FFE70D9820F09C
:100C300003000821C4F2010140580A900D9800F009
:100C4000030081000F2000FA01F10A9888430A90FE
:100C50000F9840F60001C4F20101884203D1FFE77A
:100C60000020029026E00F9840F60041C4F20101F6
:100C7000884203D1FFE70120019018E00F9841F26C
:100C80000001C4F20101884203D1FFE70220009075
:100C90000AE00F9941F20042C4F20102042091429D
:100CA00008BF03200090FFE700980190FFE701983C
:100CB0000290FFE702980D9901F00301890000FA04
:100CC00001F10A9808430A900A980D9921F003014E
:100CD0000822C4F2010288500E988079C00748B1FA
:100CE000FFE70B9A40F20041C4F20101086810438B
:100CF000086008E00B9A40F20041C4F20101086864
:100D000090430860FFE70E9880798007002809D596
:100D1000FFE70B9A40F20441C4F201010868104356
:100D2000086008E00B9A40F20441C4F2010108682F
:100D300090430860FFE70E988079C006002809D527
:100D4000FFE70B9A40F20841C4F201010868104322
:100D5000086008E00B9A40F20841C4F201010868FB
:100D600090430860FFE70E9880798006002809D537
:100D7000FFE70B9A40F20C41C4F2010108681043EE
:100D8000086008E00B9A40F20C41C4F201010868C7
:100D900090430860FFE7FFE7FFE70D9801300D90F3
:100DA00079E610B07047000082B00190ADF80210F3
:100DB00001988068BDF80210084204D0FFE70120C6
:100DC0008DF8010003E000208DF80100FFE79DF899
:100DD000010002B07047000083B00290ADF8061029
:100DE0000298C0680090009ABDF8060002EA00016F
:100DF000904340EA01400299086103B07047000047
:100E000082B00190ADF802108DF801209DF801002C
:100E100028B1FFE7BDF802000199086105E0BDF8BF
:100E20000200000401990861FFE702B0704700006A
:100E300041F60400C2F200000068704740F204006E
:100E4000C2F20000027841F60401C2F20001086813
:100E5000104408607047000080B582B042F2000183
:100E6000C4F20201086840F010000860032000F09E
:100E700097F80020019000F005F800F03BF8019889
:100E800002B080BD80B582B0009040F20000C2F296
:100E90000000006840F20401C2F200010A784FF439
:100EA0007A71B1FBF2F1B0FBF1F000F087FD20B1F7
:100EB000FFE701208DF8070018E000980F280DD8F3
:100EC000FFE700994FF0FF30002200F04FF8009844
:100ED00040F20801C2F20001086003E001208DF831
:100EE000070003E000208DF80700FFE79DF80700EA
:100EF00002B080BD83B0FFE741F21800C4F20200E7
:100F0000016841F001010160006800F001000290F9
:100F10000298FFE7FFE741F21C00C4F202000168FB
:100F200041F080510160006800F08050019001980C
:100F3000FFE7FFE70421C4F2010108680090009870
:100F400020F0E0600090009840F000700090009861
:100F50000860FFE703B0704780B582B08DF80700E6
:100F60009DF9070003F0E4F802B080BD80B586B0BB
:100F70008DF81700049103920020029003F0F0F81E
:100F800002909DF91700019002980499039A02F0CB
:100F900023FB0146019803F0EBF806B080BD00008A
:100FA00080B582B00190019803F004F902B080BDD1
:100FB00080B584B002900191029820B9FFE701202A
:100FC0008DF80F001BE1019842F20001C4F202010A
:100FD000096801F00701884216D9FFE742F20000D4
:100FE000C4F20200016821F00701019A1143016077
:100FF000006800F007000199884204D0FFE7012053
:101000008DF80F00FBE0FFE70298007880070028CA
:101010002AD5FFE7029800784007002809D5FFE7A6
:1010200041F20401C4F20201086840F4E060086083
:10103000FFE7029800780007002809D5FFE741F292
:101040000401C4F20201086840F460500860FFE740
:1010500041F20401C4F20201086820F0F000029A93
:10106000926810430860FFE702980078C0070028E4
:1010700060D0FFE70298406801280ED1FFE741F2F7
:101080000000C4F2020000688003002804D4FFE7D7
:1010900001208DF80F00B2E021E00298406802289C
:1010A0000ED1FFE741F20000C4F2020000688001A7
:1010B000002804D4FFE701208DF80F009FE00DE029
:1010C00041F20000C4F2020000688007002804D446
:1010D000FFE701208DF80F0091E0FFE7FFE741F205
:1010E0000401C4F20201086820F00300029A526869
:1010F00010430860FFF79CFE0090FFE741F20400F8
:10110000C4F20200006800F00C0002994968B0EBDC
:10111000810F0ED0FFE7FFF78BFE0099401A41F2D6
:101120008931884204D3FFE703208DF80F0066E081
:10113000E4E7FFE7019842F20001C4F20201096806
:1011400001F00701884216D2FFE742F20000C4F224
:101150000200016821F00701019A11430160006853
:1011600000F007000199884204D0FFE701208DF8C4
:101170000F0044E0FFE702980078400700280CD5F4
:10118000FFE741F20401C4F20201086820F4E060C4
:10119000029AD26810430860FFE7029800780007BF
:1011A00000280DD5FFE741F20401C4F202010868EE
:1011B00020F46050029A126940EAC2000860FFE71A
:1011C00000F04CF841F20401C4F202010968C9B20E
:1011D0000A0947F27C21C0F60001895CC84040F250
:1011E0000001C2F20001086040F20800C2F20000F3
:1011F0000068FFF747FE00208DF80F00FFE79DF81D
:101200000F0004B080BD000040F20000C2F20000F8
:101210000068704780B5FFF7F7FF41F20401C4F2A0
:1012200002010968C1F3022247F28C21C0F60001D5
:10123000895CC84080BD000080B5FFF7E5FF41F242
:101240000401C4F202010968C1F3C22247F28C21F1
:10125000C0F60001895CC84080BD00008BB040F63C
:101260000E70C1F210000A9040F60A30C0F60C5021
:10127000099040F20670C0F60810089040F2023063
:10128000C0F20450079040F20120ADF81A0000208F
:101290000590049003900290019041F20400C4F282
:1012A000020000680590059800F00C0001460091CE
:1012B000E0B3FFE70098042804D0FFE7009808286F
:1012C00006D034E041F20020C0F27A00019034E010
:1012D0000598C0F3834107A8405C02909DF8160072
:1012E000C007C0B1FFE741F20400C4F20200006889
:1012F00000F400310DF11A0040EA514000780490EA
:10130000029841F20021C0F27A0148430499B0FBEF
:10131000F1F0039007E0029840F60011C0F23D01A1
:1013200048430390FFE70398019006E0FFE741F28E
:101330000020C0F27A000190FFE701980BB07047DF
:1013400080B586B00490049820B9FFE701208DF89D
:1013500017002EE304980078C007002800F0AE8044
:10136000FFE741F20400C4F20200006800F00C0044
:10137000042813D0FFE741F20400C4F20200006821
:1013800000F00C0008281BD1FFE741F20400C4F272
:1013900002000068C003002812D5FFE741F20000F8
:1013A000C4F2020000688003002808D5FFE7049813
:1013B000406820B9FFE701208DF81700F9E27CE0D2
:1013C000FFE704984068B0F5803F09D1FFE741F29C
:1013D0000001C4F20201086840F48030086032E085
:1013E0000498406868B9FFE741F20001C4F20201C5
:1013F000086820F480300860086820F480200860C5
:1014000020E004984068B0F5A02F0DD1FFE741F22D
:101410000001C4F20201086840F4802008600868F6
:1014200040F4803008600CE041F20001C4F2020197
:10143000086820F480300860086820F48020086084
:10144000FFE7FFE7FFE7FFE704984068D0B1FFE759
:10145000FFF7EEFC0390FFE741F20000C4F2020048
:101460000068800300280CD4FFE7FFF7E1FC039934
:10147000401A652804D3FFE703208DF8170098E28F
:10148000EAE719E0FFF7D4FC0390FFE741F2000020
:10149000C4F202000068800300280CD5FFE7FFF7C4
:1014A000C7FC0399401A652804D3FFE703208DF891
:1014B00017007EE2EAE7FFE7FFE7FFE7049800781E
:1014C0008007002840F18D80FFE741F20400C4F25C
:1014D0000200006810F00C0F13D0FFE741F2040087
:1014E000C4F20200006800F00C00082829D1FFE7D0
:1014F00041F20400C4F202000068C003002820D4B6
:10150000FFE741F20000C4F20200006880070028F3
:1015100009D5FFE704980069012804D0FFE70120FE
:101520008DF8170045E241F20001C4F2020108689B
:1015300020F0F800049A526940EAC2000860FFE710
:101540004EE00498006958B3FFE70021C4F242213D
:1015500001200860FFF76CFC0390FFE741F20000F8
:10156000C4F202000068800700280CD4FFE7FFF7F0
:101570005FFC0399401A032804D3FFE703208DF88A
:10158000170016E2EAE741F20001C4F2020108681E
:1015900020F0F800049A526940EAC20008601EE098
:1015A0000021C4F2422100200860FFF741FC0390B3
:1015B000FFE741F20000C4F2020000688007002843
:1015C0000CD5FFE7FFF734FC0399401A032804D336
:1015D000FFE703208DF81700EBE1EAE7FFE7FFE7FD
:1015E000FFE7049800780007002848D5FFE7049833
:1015F000806918B3FFE740F28041C4F24221012024
:101600000860FFF715FC0390FFE741F22400C4F2E5
:1016100002000068800700280CD4FFE7FFF708FCF1
:101620000399401A032804D3FFE703208DF817001D
:10163000BFE1EAE7012002F007F81FE040F2804135
:10164000C4F2422100200860FFF7F2FB0390FFE79D
:1016500041F22400C4F202000068800700280CD583
:10166000FFE7FFF7E5FB0399401A032804D3FFE7E0
:1016700003208DF817009CE1EAE7FFE7FFE70498F5
:1016800000784007002840F1D880FFE700208DF85F
:10169000070041F21C00C4F202000068C0000028EC
:1016A00013D4FFE7FFE741F21C00C4F20200016817
:1016B00041F080510160006800F080500090009877
:1016C000FFE701208DF80700FFE747F20000C4F2B2
:1016D00000000068C005002822D4FFE747F200019F
:1016E000C4F20001086840F480700860FFF7A0FBB6
:1016F0000390FFE747F20000C4F200000068C00555
:1017000000280CD4FFE7FFF793FB0399401A6528E4
:1017100004D3FFE703208DF817004AE1EAE7FFE76B
:10172000FFE70498C068012809D1FFE741F22001D2
:10173000C4F20201086840F00100086031E004983A
:10174000C06868B9FFE741F22001C4F202010868ED
:1017500020F001000860086820F0040008601FE025
:101760000498C06805280DD1FFE741F22001C4F2BA
:101770000201086840F004000860086840F00100B9
:1017800008600CE041F22001C4F20201086820F078
:1017900001000860086820F004000860FFE7FFE728
:1017A000FFE7FFE70498C068E0B1FFE7FFF740FB01
:1017B0000390FFE741F22000C4F2020000688007B6
:1017C00000280ED4FFE7FFF733FB0399401A41F2DC
:1017D0008931884204D3FFE703208DF81700E8E041
:1017E000E8E71BE0FFF724FB0390FFE741F220004E
:1017F000C4F202000068800700280ED5FFE7FFF75B
:1018000017FB0399401A41F28931884204D3FFE75C
:1018100003208DF81700CCE0E8E7FFE79DF807000C
:10182000012809D1FFE741F21C01C4F20201086856
:1018300020F080500860FFE7FFE70498C0690028A7
:1018400000F0B380FFE741F20400C4F20200006838
:1018500000F00C00082800F08280FFE70498C069BF
:1018600002285CD1FFE76021C4F242210020086019
:10187000FFF7DEFA0390FFE741F20000C4F2020036
:101880000068800100280CD5FFE7FFF7D1FA039923
:10189000401A032804D3FFE703208DF8170088E0DF
:1018A000EAE70498006AB0F5803F0CD1FFE741F207
:1018B0000401C4F20201086820F40030049A92681E
:1018C00010430860FFE741F20401C4F20201086816
:1018D00020F47410049B1A6A5B6A1A431043086070
:1018E0006021C4F2422101200860FFF7A1FA0390B1
:1018F000FFE741F20000C4F2020000688001002806
:101900000CD4FFE7FFF794FA0399401A032804D395
:10191000FFE703208DF817004BE0EAE71EE06021A7
:10192000C4F2422100200860FFF782FA0390FFE72B
:1019300041F20000C4F202000068800100280CD5CA
:10194000FFE7FFF775FA0399401A032804D3FFE76E
:1019500003208DF817002CE0EAE7FFE724E0049865
:10196000C069012804D1FFE701208DF8170020E0AD
:1019700041F20400C4F2020000680290029800F4F0
:1019800080300499096A884208D1FFE7029800F480
:1019900070100499496A884204D0FFE701208DF84D
:1019A000170006E0FFE7FFE7FFE700208DF81700CC
:1019B000FFE79DF8170006B080BD000080B582B03B
:1019C0000190019801F060FE02B080BD81B00090EE
:1019D00001B0704781B0009001B0704785B00390AE
:1019E0000291FFE7039890F83C00012804D1FFE73B
:1019F00002208DF813005BE00399012081F83C0080
:101A0000FFE7FFE70399022081F83D000398006893
:101A1000406801900398006880680090019820F069
:101A200070000190029801680198084301900198A4
:101A30000399096848600398006842F60041C4F2BF
:101A40000101884218D0FFE703980068B0F1804F89
:101A500012D0FFE70398006840F20041C4F2000191
:101A6000884209D0FFE70398006840F60001C4F2FD
:101A7000000188420ED1FFE7009820F0800000901E
:101A800002984168009808430090009803990968FB
:101A90008860FFE70399012081F83D00FFE7039983
:101AA000002081F83C00FFE700208DF81300FFE7DD
:101AB0009DF8130005B0704780B582B00090009883
:101AC00020B9FFE701208DF807003FE0009890F86B
:101AD0003D0040B9FFE70099002081F83C000098E4
:101AE00000F038F8FFE70099022081F83D000099E6
:101AF00051F8040B01F066FE0099012081F84600C0
:101B0000FFE70099012081F83E00009981F83F002D
:101B1000009981F84000009981F84100FFE7FFE754
:101B20000099012081F84200009981F84300009952
:101B300081F84400009981F84500FFE700990120F1
:101B400081F83D0000208DF80700FFE79DF80700B1
:101B500002B080BD80B586B005900598006842F659
:101B60000041C4F20101884219D1FFE7FFE741F2C9
:101B70001800C4F20200016841F4006101600068CD
:101B800000F4006004900498FFE719200090012100
:101B90000022FFF7EBF90098FFF7DEF94AE005981D
:101BA0000068B0F1804F10D1FFE7FFE741F21C0061
:101BB000C4F20200016841F001010160006800F018
:101BC000010003900398FFE733E00598006840F2B6
:101BD0000041C4F20001884210D1FFE7FFE741F263
:101BE0001C00C4F20200016841F0020101600068BB
:101BF00000F0020002900298FFE719E005980068E3
:101C000040F60001C4F20001884210D1FFE7FFE76F
:101C100041F21C00C4F20200016841F004010160BD
:101C2000006800F0040001900198FFE7FFE7FFE77C
:101C3000FFE7FFE706B080BD83B00190019890F800
:101C40003D00012804D0FFE701208DF80B0041E0A2
:101C50000199022081F83D000198006842F6004198
:101C6000C4F20101884218D0FFE701980068B0F182
:101C7000804F12D0FFE70198006840F20041C4F2A3
:101C80000001884209D0FFE70198006840F6000192
:101C9000C4F20001884212D1FFE701980068806811
:101CA00000F0070000900098062807D0FFE7019891
:101CB0000168086840F001000860FFE706E001984D
:101CC0000168086840F001000860FFE700208DF817
:101CD0000B00FFE79DF80B0003B0704783B0019045
:101CE000019890F83D00012804D0FFE701208DF80D
:101CF0000B0047E00199022081F83D00019801683E
:101D0000C86840F00100C8600198006842F60041D0
:101D1000C4F20101884218D0FFE701980068B0F1D1
:101D2000804F12D0FFE70198006840F20041C4F2F2
:101D30000001884209D0FFE70198006840F60001E1
:101D4000C4F20001884212D1FFE701980068806860
:101D500000F0070000900098062807D0FFE70198E0
:101D60000168086840F001000860FFE706E001989C
:101D70000168086840F001000860FFE700208DF866
:101D80000B00FFE79DF80B0003B0704780B586B0ED
:101D900004900391FFE7049890F83C00012804D1D7
:101DA000FFE702208DF81700A7E00499012081F8D1
:101DB0003C00FFE7FFE70499022081F83D0004980A
:101DC000006880680290029820F0770002900298E4
:101DD00020F47F4002900298049909688860039873
:101DE00000680190002872D0FFE7019810286ED09B
:101DF000FFE7019820286AD0FFE70198302866D0D5
:101E0000FFE70198402855D0FFE70198502837D0C8
:101E1000FFE70198602840D0FFE7019870280BD0B9
:101E2000FFE70198B0F5805F05D0FFE70198B0F5B6
:101E3000005F16D052E052E004980068039B5A6895
:101E40009968DB6801F052FD049800688068029090
:101E5000029840F07700029002980499096888601F
:101E60003DE004980068039B5A689968DB6801F0BC
:101E70003DFD04980168886840F4804088602EE049
:101E800004980068039A5168D26801F0EBFE049848
:101E90000068502101F044FD21E004980068039A95
:101EA0005168D26801F006FF04980068602101F0D3
:101EB00037FD14E004980068039A5168D26801F075
:101EC000D1FE04980068402101F02AFD07E0049843
:101ED00000680399096801F023FD00E0FFE7049919
:101EE000012081F83D00FFE70499002081F83C00C3
:101EF000FFE700208DF81700FFE79DF8170006B0F8
:101F000080BD000081B0009001B0704780B582B004
:101F1000019001980068006900F002010020B0EB18
:101F2000510F28D0FFE701980068C06800F0020157
:101F30000020B0EB510F1DD0FFE7019801686FF052
:101F40000200086101990120087701980068806902
:101F5000800720B1FFE70198FFF7D4FF06E0019862
:101F600000F0AAF9019800F097FAFFE70199002024
:101F70000877FFE7FFE701980068006900F00401B7
:101F80000020B0EB910F29D0FFE701980068C068EE
:101F900000F004010020B0EB910F1ED0FFE7019884
:101FA00001686FF004000861019902200877019828
:101FB0000068806910F4407F04D0FFE70198FFF7C4
:101FC000A1FF06E0019800F077F9019800F064FAAB
:101FD000FFE7019900200877FFE7FFE70198006815
:101FE000006900F008010020B0EBD10F28D0FFE716
:101FF00001980068C06800F008010020B0EBD10F24
:102000001DD0FFE7019801686FF008000861019991
:102010000420087701980068C069800720B1FFE7B5
:102020000198FFF76FFF06E0019800F045F901986D
:1020300000F032FAFFE7019900200877FFE7FFE799
:1020400001980068006900F010010020B0EB111F3A
:1020500029D0FFE701980068C06800F01001002057
:10206000B0EB111F1ED0FFE7019801686FF0100060
:10207000086101990820087701980068C06910F488
:10208000407F04D0FFE70198FFF73CFF06E001988E
:1020900000F012F9019800F0FFF9FFE70199002024
:1020A0000877FFE7FFE7019800680069C00780B183
:1020B000FFE701980068C068C00748B1FFE70198D2
:1020C00001686FF001000861019800F00BFBFFE769
:1020D000FFE7019800680069C1B20020B0EBD11F92
:1020E00013D0FFE701980068C068C1B20020B0EBD0
:1020F000D11F09D0FFE7019801686FF080000861E7
:102100000198FFF763FCFFE7FFE7019800680069AB
:1021100000F040010020B0EB911F14D0FFE70198C0
:102120000068C06800F040010020B0EB911F09D0AA
:10213000FFE7019801686FF040000861019800F026
:10214000E9FAFFE7FFE701980068006900F0200165
:102150000020B0EB511F14D0FFE701980068C06861
:1021600000F020010020B0EB511F09D0FFE70198DB
:1021700001686FF0200008610198FFF72BFCFFE772
:10218000FFE702B080BD000080B58CB00B9000204E
:102190000A900990089007900B980068B0F1804F62
:1021A0001CD1FFE7FFE741F21800C4F2020001680A
:1021B00041F004010160006800F0040006900698F8
:1021C000FFE703200790022008900A9040F60000E5
:1021D000C4F2010007A9FEF757FC6BE00B980068FA
:1021E00040F20041C4F2000188423BD1FFE7FFE723
:1021F00041F21800C4F20200016841F004010160DC
:10220000006800F0040005900598FFE7FFE741F241
:102210001800C4F20200016841F008010160006882
:1022200000F0080004900498FFE7C0200790022007
:1022300000900890032001900A9040F60000C4F23C
:10224000010007A90291FEF71FFC009A019802996C
:10225000079008920A9040F60040C4F20100FEF791
:1022600013FC26E00B98006840F60001C4F2000160
:1022700088421DD1FFE7FFE741F21800C4F20200D7
:10228000016841F008010160006800F00800039057
:102290000398FFE74FF440700790022008900A90DF
:1022A00040F60040C4F2010007A9FEF7EDFBFFE78E
:1022B000FFE7FFE70CB080BD81B0009001B0704730
:1022C00080B586B0049003910292FFE7049890F8DD
:1022D0003C00012804D1FFE702208DF8170085E0BB
:1022E0000499012081F83C00FFE7FFE70298019084
:1022F0000C2800F270800199DFE801F0076D6D6D28
:10230000206D6D6D3A6D6D6D5300049800680399F2
:1023100001F01CFB04980168886940F0080088619E
:1023200004980168886920F00400886103980269B4
:10233000049801688869104388614DE0049800683A
:10234000039901F06BFB04980168886940F4006010
:10235000886104980168886920F480608861039826
:10236000026904980168886940EA0220886133E0C4
:1023700004980068039901F0BDFB04980168C869DE
:1023800040F00800C86104980168C86920F00400A2
:10239000C8610398026904980168C8691043C8615C
:1023A0001AE004980068039901F010FC0498016891
:1023B000C86940F40060C86104980168C86920F4E5
:1023C0008060C8610398026904980168C86940EA9E
:1023D0000220C86100E0FFE7FFE70499002081F8D0
:1023E0003C00FFE700208DF81700FFE79DF817007D
:1023F00006B080BD80B582B00090009820B9FFE79C
:1024000001208DF807003FE0009890F83D0040B9AA
:10241000FFE70099002081F83C00009800F038F8B0
:10242000FFE70099022081F83D00009951F8040B64
:1024300001F0C8F90099012081F84600FFE70099F2
:10244000012081F83E00009981F83F00009981F851
:102450004000009981F84100FFE7FFE70099012063
:1024600081F84200009981F84300009981F8440006
:10247000009981F84500FFE70099012081F83D00AF
:1024800000208DF80700FFE79DF8070002B080BD2F
:1024900081B0009001B0704781B0009001B07047EA
:1024A00080B58AB008900791079828B9FFE7089887
:1024B00090F83E0005901CE00798042805D1FFE73E
:1024C000089890F83F00049010E00798082805D17C
:1024D000FFE7089890F84000039004E0089890F80F
:1024E00041000390FFE703980490FFE704980590EC
:1024F000FFE70598012804D0FFE701208DF82700A9
:102500007AE0079828B9FFE70899022081F83E0091
:102510001EE00798042806D1FFE70899022081F8F9
:102520003F00029012E00798082806D1FFE70899BB
:10253000022081F84000019005E00899022081F80E
:1025400041000190FFE701980290FFE70298FFE742
:10255000089800680799012201F0ACF90898006812
:1025600042F60041C4F20101884207D1FFE7089812
:102570000168486C40F400404864FFE70898006830
:1025800042F60041C4F20101884218D0FFE70898E2
:102590000068B0F1804F12D0FFE70898006840F261
:1025A0000041C4F20001884209D0FFE708980068A2
:1025B00040F60001C4F20001884212D1FFE70898FA
:1025C0000068806800F0070006900698062807D08B
:1025D000FFE708980168086840F001000860FFE71D
:1025E00006E008980168086840F001000860FFE70D
:1025F00000208DF82700FFE79DF827000AB080BD76
:1026000080B584B00390029103980068029900227B
:1026100001F050F90398006842F60041C4F201014C
:1026200088421BD1FFE7FFE703980068006A41F288
:102630001111084210D1FFE703980068006A40F2C8
:102640004441084207D1FFE703980168486C20F431
:1026500000404864FFE7FFE7FFE7FFE7FFE7039875
:102660000068006A41F21111084210D1FFE7039897
:102670000068006A40F24441084207D1FFE703982E
:102680000168086820F001000860FFE7FFE7FFE746
:10269000029828B9FFE70399012081F83E001EE067
:1026A0000298042806D1FFE70399012081F83F0032
:1026B000019012E00298082806D1FFE70399012053
:1026C00081F84000009005E00399012081F8410065
:1026D0000090FFE700980190FFE70198FFE70020D6
:1026E00004B080BD80B582B001900198006842F6C8
:1026F0000041C4F20101884209D1FFE740F21471A0
:10270000C2F200010120087003F00EFEFFE702B0E4
:1027100080BD000081B0009001B0704782B0019090
:10272000ADF8021002B0704780B584B00390FFE7A7
:1027300000200290039800680068029003980068E7
:10274000406802900298FFE7FFE70020019003989D
:102750000068006801900398006840680190019843
:10276000FFE7FFE7002000900398006800680090F2
:1027700003980068406800900098FFE7039801689C
:10278000486920F0010048610398006843F60001A1
:10279000C4F2010188420CD1FFE740F2F070C2F2AE
:1027A000000040F6F011C2F20001102200F010FB10
:1027B000FFE70398006844F20041C4F20001884238
:1027C0000DD1FFE740F63400C2F2000040F61E6172
:1027D000C2F200014FF4836200F0FAFAFFE70398B7
:1027E000006844F60001C4F2000188420CD1FFE702
:1027F00040F67800C2F2000041F2BA21C2F20001B4
:10280000802200F0E5FAFFE704B080BD80B588B013
:102810000790079800680068069007980068C068ED
:10282000059007980068406904900020039002908A
:10283000069800F00F000390039888B9FFE79DF811
:102840001800800600280AD5FFE79DF814008006CE
:10285000002804D5FFE7079801F09EFA76E1FFE72C
:102860000398002800F0B480FFE79DF81000C0072F
:1028700038B9FFE7BDF8140010F4907F00F0A8808D
:10288000FFE79DF81800C00758B1FFE79DF8150055
:10289000C00730B1FFE70799086C40F001000864F9
:1028A000FFE79DF81800400700280BD5FFE79DF8CB
:1028B0001000C00730B1FFE70799086C40F0020034
:1028C0000864FFE79DF81800800700280BD5FFE794
:1028D0009DF81000C00730B1FFE70799086C40F081
:1028E00004000864FFE79DF818000007002811D5D0
:1028F000FFE79DF814008006002805D4FFE79DF847
:102900001000C00730B1FFE70799086C40F00800DD
:102910000864FFE70798006C002858D0FFE79DF88F
:102920001800800600280AD5FFE79DF814008006ED
:10293000002804D5FFE7079801F02EFAFFE7079873
:1029400000684069C0F3801002900798006C00078F
:10295000002803D4FFE7029888B3FFE7079801F047
:10296000E3F90798006840694006002822D5FFE790
:1029700007980168486920F0400048610798806B1B
:1029800098B1FFE70798816B43F60950C0F6000045
:1029900048630798806BFDF795FE28B1FFE707981D
:1029A000806B416B8847FFE703E00798FFF7BCFEA9
:1029B000FFE703E00798FFF7B7FEFFE706E0079899
:1029C000FFF7B2FE079900200864FFE7FFE7BDE0CC
:1029D0000798006B012840F09980FFE79DF81800E8
:1029E000C006002840F19280FFE79DF81400C00661
:1029F000002840F18B80FFE7FFE700200190079857
:102A0000006800680190079800684068019001988C
:102A1000FFE70798006840694006002848D5FFE7AF
:102A20000798806B00684068ADF80200BDF80200AE
:102A3000E8B3FFE7BDF802000799898D884236DACE
:102A4000FFE7BDF802000799C8850798806B806989
:102A5000202824D0FFE707980168C86820F4807018
:102A6000C86007980168486920F00100486107982C
:102A70000168486920F0400048610799202081F8EA
:102A80003E0007990020086307980168C86820F095
:102A90001000C8600798806BFDF7D6FDFFE7079828
:102AA000818DC28D891A89B2FFF738FEFFE74DE0AC
:102AB0000799888DC98D401AADF800000798C08D20
:102AC00018B3FFE7BDF80000F8B1FFE70798016809
:102AD000C86820F49070C86007980168486920F0C1
:102AE000010048610799202081F83E0007990020E5
:102AF000086307980168C86820F01000C86007984C
:102B0000BDF80010FFF70AFEFFE71FE09DF8180070
:102B1000000600280AD5FFE79DF8140000060028EB
:102B200004D5FFE7079801F09FFA0FE09DF8180021
:102B3000400600280AD5FFE79DF81400400600284B
:102B400004D5FFE7079801F013F9FFE708B080BD4F
:102B500080B582B00090009820B9FFE701208DF881
:102B600007003EE00098806908B1FFE700E0FFE75A
:102B7000009890F83D0040B9FFE70099002081F8E7
:102B80003C00009800F032F8FFE70099242081F81B
:102B90003D0000980168C86820F40050C8600098A3
:102BA00001F0D2F900980168086920F490400861AA
:102BB00000980168486920F02A004861009801687F
:102BC000C86840F40050C860009900200864009A6A
:102BD000202182F83D10009A82F83E108DF80700FF
:102BE000FFE79DF8070002B080BD000080B598B0F7
:102BF0001790002016901590149013901798006865
:102C000043F60001C4F20101884244D1FFE7FFE727
:102C100041F21800C4F20200016841F480410160F1
:102C2000006800F4804012901298FFE7FFE741F23D
:102C30001800C4F20200016841F00401016000685C
:102C400000F0040011901198FFE74FF4007013900A
:102C5000022014900320169040F60000C4F20100F8
:102C6000099013A90A91FDF70FFF09980A994FF4EB
:102C70008062139200220B92149201221592FDF7AA
:102C800003FF0B9A25200C901146FEF76FF90C9864
:102C9000FEF762F999E01798006844F20041C4F227
:102CA0000001884242D1FFE7FFE741F21C00C4F275
:102CB0000200016841F400310160006800F4003056
:102CC00010901098FFE7FFE741F21800C4F20200ED
:102CD000016841F004010160006800F004000F90F9
:102CE0000F98FFE704201390022014900320169001
:102CF00040F60000C4F20100059013A90691FDF70B
:102D0000C3FE059806990822139200220792149296
:102D100001221592FDF7B8FE079A26200890114669
:102D2000FEF724F90898FEF717F94DE017980068A8
:102D300044F60001C4F20001884244D1FFE7FFE7F6
:102D400041F21C00C4F20200016841F480210160DC
:102D5000006800F480200E900E98FFE7FFE741F234
:102D60001800C4F20200016841F008010160006827
:102D700000F008000D900D98FFE74FF4806013906D
:102D8000022014900320169040F60040C4F2010087
:102D9000019013A90291FDF777FE019802994FF473
:102DA0000062139200220392149201221592FDF701
:102DB0006BFE039A272004901146FEF7D7F804987B
:102DC000FEF7CAF8FFE7FFE7FFE718B080BD000095
:102DD00080B584B002900191ADF80220029890F87D
:102DE0003E00202828D1FFE7019820B1FFE7BDF879
:102DF000020020B9FFE701208DF80F0020E0FFE777
:102E0000029890F83C00012804D1FFE702208DF8D9
:102E10000F0015E00299012081F83C00FFE7FFE771
:102E200002990020086302980199BDF8022001F080
:102E3000E9F88DF80F0003E002208DF80F00FFE79E
:102E40009DF80F0004B080BD80B582B0019001985C
:102E5000006843F60001C4F2010188420CD1FFE78B
:102E600040F2F070C2F2000040F6F011C2F2000130
:102E70001022FFF7ADFFFFE70198006844F2004120
:102E8000C4F2000188420DD1FFE740F63400C2F2DF
:102E9000000040F61E61C2F200014FF48362FFF7AA
:102EA00097FFFFE70198006844F60001C4F20001B3
:102EB00088420CD1FFE740F67800C2F2000041F2F0
:102EC000BA21C2F200018022FFF782FFFFE702B0C1
:102ED00080BD000084B002900191ADF802200298FC
:102EE00090F83D0020283ED1FFE7019820B1FFE790
:102EF000BDF8020020B9FFE701208DF80F0036E091
:102F0000FFE7029890F83C00012804D1FFE7022077
:102F10008DF80F002BE00299012081F83C00FFE7BB
:102F2000FFE7019802990862BDF8020002998884BF
:102F3000BDF802000299C884029900200864029931
:102F4000212081F83D00FFE70299002081F83C0034
:102F5000FFE702980168C86840F08000C860002060
:102F60008DF80F0003E002208DF80F00FFE79DF8B9
:102F70000F0004B07047000081B0009001B07047AE
:102F8000FFE7FEE780B584B08DF80F008DF80E10D6
:102F90009DF80F009DF80E1008448DF806009DF86E
:102FA0000600C0438DF8060041F25B30C2F200001B
:102FB000029000208DF8070002999DF80720501C10
:102FC0008DF80700FA20885402999DF80720501CBC
:102FD0008DF80700F12088549DF80F0002999DF8A4
:102FE0000720531C8DF8073088549DF80E00029975
:102FF0009DF80720531C8DF8073088549DF8060073
:1030000002999DF80720531C8DF8073088540299C7
:103010009DF8072040F2F070C2F20000FFF75AFF5F
:1030200004B080BD80B592B00020119010900F9038
:103030000E90FFE741F21800C4F20200016841F06F
:1030400010010160006800F010000D900D98FFE77E
:10305000FFE741F21800C4F20200016841F02001CC
:103060000160006800F020000C900C98FFE7FFE77B
:1030700041F21800C4F20200016841F0040101604D
:10308000006800F004000B900B98FFE7FFE741F2A7
:103090001800C4F20200016841F0080101600068F4
:1030A00000F008000A900A98FFE741F20000C4F21D
:1030B000010001904FF40051009100220692FDF7AB
:1030C0009FFE069A40F60000C4F2010005904FF4FE
:1030D00098710291FDF794FE069A40F60040C4F202
:1030E000010008904CF280010491FDF789FE009ADE
:1030F000019806990E92012207920F9210910321D6
:1031000011910EA90991FDF7BFFCDDF808C00598E3
:10311000069A079B0999CDF838C00F9310920222A6
:1031200003921192FDF7B0FC039A069BDDF81CC0D8
:1031300008980999DDF810E0CDF838E0CDF83CC0EA
:1031400010931192FDF7A0FC0598069B079A099928
:103150004FF4184CCDF838C00F931092FDF794FC43
:10316000069B079A089809994FF0780CCDF838C05B
:103170000F931092FDF788FC12B080BD80B588B027
:10318000002100910791069105910491039102910C
:1031900040F2CC60C2F20000019042F60042C4F25C
:1031A000010202600B22426081604EF65F22C26023
:1031B0000161416180218161FEF77EFC18B1FFE76A
:1031C000FDF7E2F8FFE74FF48050049040F2CC6046
:1031D000C2F2000004A9FEF7D9FD18B1FFE7FDF720
:1031E000D3F8FFE7202002900020039040F2CC604B
:1031F000C2F2000002A9FEF7F1FB18B1FFE7FDF7EC
:10320000C3F8FFE708B080BD80B58EB00021009103
:103210000D910C910B910A910991089107910691DA
:103220000591049103910291019140F21870C2F24C
:1032300000004FF080420260416081604FF6FF72F3
:10324000C26001618161FEF737FC18B1FFE7FDF74D
:103250009BF8FFE74FF480500A9040F21870C2F2DA
:1032600000000AA9FEF792FD18B1FFE7FDF78CF800
:10327000FFE740F21870C2F20000FFF7BBF818B188
:10328000FFE7FDF781F8FFE700200890099040F282
:103290001870C2F2000008A9FEF7A0FB18B1FFE702
:1032A000FDF772F8FFE7602001900022029203927E
:1032B000059240F21870C2F2000001A9FFF700F871
:1032C00018B1FFE7FDF760F8FFE740F21870C2F2AF
:1032D000000001A90422FEF7F3FF18B1FFE7FDF794
:1032E00053F8FFE740F21870C2F20000FEF74CFFFF
:1032F0000EB080BD80B58EB0002100910D910C9173
:103300000B910A91099108910791069105910491F9
:1033100003910291019140F26070C2F2000040F20C
:103320000042C4F20002026009224260816040F261
:10333000DF12C26001618161FEF7BEFB18B1FFE7D9
:10334000FDF722F8FFE74FF480500A9040F26070DA
:10335000C2F200000AA9FEF719FD18B1FFE7FDF758
:1033600013F8FFE740F26070C2F20000FFF742F886
:1033700018B1FFE7FDF708F8FFE700200890099073
:1033800040F26070C2F2000008A9FEF727FB18B1F6
:10339000FFE7FCF7F9FFFFE76020019000220292AF
:1033A0000392059240F26070C2F2000001A9FEF79C
:1033B00087FF18B1FFE7FCF7E7FFFFE740F2607017
:1033C000C2F2000001A90422FEF77AFF18B1FFE75C
:1033D000FCF7DAFFFFE740F26070C2F2000001A9DB
:1033E0000822FEF76DFF18B1FFE7FCF7CDFFFFE7FE
:1033F00040F26070C2F2000001A90C22FEF760FFEB
:1034000018B1FFE7FCF7C0FFFFE740F26070C2F2BF
:103410000000FEF7B9FE0EB080BD000080B58EB092
:10342000002100910D910C910B910A910991089145
:10343000079106910591049103910291019140F247
:10344000A870C2F2000040F60002C4F2000202605E
:10345000416081604FF6FF72C26001618161FEF7D9
:103460002BFB18B1FFE7FCF78FFFFFE74FF480500D
:103470000A9040F2A870C2F200000AA9FEF786FC8A
:1034800018B1FFE7FCF780FFFFE740F2A870C2F237
:103490000000FEF7AFFF18B1FFE7FCF775FFFFE78D
:1034A00000200890099040F2A870C2F2000008A91C
:1034B000FEF794FA18B1FFE7FCF766FFFFE760201C
:1034C0000190002002900390059040F2A870C2F293
:1034D000000001A90822FEF7F3FE18B1FFE7FCF790
:1034E00053FFFFE740F2A870C2F2000001A90C22CE
:1034F000FEF7E6FE18B1FFE7FCF746FFFFE740F2F4
:10350000A870C2F20000FEF73FFE0EB080BD0000C2
:1035100080B582B040F2F070C2F20000019043F634
:103520000001C4F2010101604FF416514160002115
:103530008160C16001610C2242618161C161FFF75C
:1035400007FB18B1FFE7FCF71FFFFFE702B080BDE4
:1035500080B582B040F63400C2F20000019044F21F
:103560000041C4F2000101604FF4E13141600021EB
:103570008160C16001610C2242618161C161FFF71C
:10358000E7FA18B1FFE7FCF7FFFEFFE702B080BDE6
:1035900080B582B040F67800C2F20000019044F697
:1035A0000001C4F2000101604FF4E13141600021EB
:1035B0008160C16001610C2242618161C161FFF7DC
:1035C000C7FA18B1FFE7FCF7DFFEFFE702B080BDE6
:1035D000FFE7FEE77047000088B00790069105926C
:1035E000079800F0070004900498C0F10700052830
:1035F00003D3FFE70420019004E00498C0F1070022
:103600000190FFE70198039004980430062803D83E
:10361000FFE70020009003E0049803380090FFE7E4
:103620000098029006980399012202FA01F10139EB
:103630000840029B984005999A40013A114008437E
:1036400008B070477047000082B00190019840F2C6
:103650000001C2F200010968C90844F6D352C1F260
:103660006202A1FB0221890948430090FFE700BFE5
:10367000FFE70098411E00910028F8D1FFE702B053
:10368000704700007047000080B582B0009000983D
:103690000138B0F1807F03D3FFE70120019019E0EA
:1036A000009801384EF21401CEF2000108604FF08C
:1036B000FF300F2100F05CFD4EF21801CEF2000148
:1036C000002008604EF21002CEF2000207211160C5
:1036D0000190FFE7019802B080BD000080B5FDF7C2
:1036E000ADFB80BD80B590B006A800902821FCF706
:1036F000B0FD00980022059204920392029201927A
:10370000092106914FF480310791089201220A9213
:103710000C9202220D920E914FF4E0110F91FDF7E1
:103720000FFE18B1FFE7FCF72FFEFFE70F20019017
:1037300002210291002003904FF4806204920590D0
:1037400001A8FDF735FC18B1FFE7FCF71DFEFFE708
:1037500010B080BD41F20002C4F20202106840F0D5
:103760000100106041F20401C4F202010868002364
:10377000CFF6FF031840086010684FF6FF73CFF6CE
:10378000F66318401060106820F48020106008680C
:1037900020F4FE00086041F20801C4F202014FF477
:1037A0001F0008604EF60851CEF200014FF0006095
:1037B0000860704780B540F2CC60C2F20000FEF7AE
:1037C000A5FB80BD83B00290019102980068009033
:1037D000029842F60041C4F20101884215D0FFE789
:1037E0000298B0F1804F10D0FFE7029840F20041FC
:1037F000C4F20001884208D0FFE7029840F60001B9
:10380000C4F2000188420AD1FFE7009820F070005E
:10381000009001984168009808430090FFE70298E3
:1038200042F60041C4F20101884215D0FFE7029838
:10383000B0F1804F10D0FFE7029840F20041C4F28F
:103840000001884208D0FFE7029840F60001C4F268
:10385000000188420AD1FFE7009820F440700090F0
:103860000198C168009808430090FFE7009820F095
:103870008000019949690843009000980299086006
:10388000019880680299C86201980068029988626C
:10389000029842F60041C4F20101884205D1FFE7D7
:1038A0000198006902990863FFE7029901204861C5
:1038B00003B0704784B0039002910192029800F027
:1038C0001F01012088400090009A0399086A9043E4
:1038D00008620198029901F01F0100FA01F20399B0
:1038E000086A1043086204B07047000085B0049075
:1038F000039102920193049880680090009820F44C
:103900007F40009003980299019A41EA0221014305
:1039100000980843009000980499886005B07047AB
:1039200083B002900191029880680090009820F086
:103930007000009001980099084340F00700009043
:1039400000980299886003B07047000085B0049029
:1039500003910499086A20F0010008620498006A43
:103960000190049840680090049880690290029841
:1039700020F070000290029820F00300029003985B
:103980000168029808430290019820F0020001901B
:1039900003988168019808430190049842F6004119
:1039A000C4F2010188420ED1FFE7019820F008001F
:1039B00001900398C168019808430190019820F094
:1039C00004000190FFE7049842F60041C4F20101AF
:1039D000884213D1FFE7009820F48070009000988F
:1039E00020F400700090039841690098084300900B
:1039F00003988169009808430090FFE700980499B4
:103A00004860029804998861039840680499486363
:103A100001980499086205B07047000085B00490D1
:103A200003910499086A20F0100008620498006A63
:103A30000190049840680090049880690290029870
:103A400020F4E0400290029820F440700290039825
:103A50000168029840EA01200290019820F02000BD
:103A6000019003988168019840EA01100190049840
:103A700042F60041C4F2010188420FD1FFE70198EC
:103A800020F0800001900398C168019840EA01107D
:103A90000190019820F040000190FFE7049842F661
:103AA0000041C4F20101884215D1FFE7009820F4DB
:103AB00080600090009820F40060009003984169B5
:103AC000009840EA8100009003988169009840EADC
:103AD00081000090FFE700980499486002980499DB
:103AE0008861039840680499886301980499086282
:103AF00005B0704785B0049003910499086A20F4DA
:103B0000807008620498006A0190049840680090F0
:103B10000498C0690290029820F070000290029808
:103B200020F0030002900398016802980843029075
:103B3000019820F40070019003988168019840EA90
:103B400001200190049842F60041C4F2010188422C
:103B50000FD1FFE7019820F4006001900398C1683D
:103B6000019840EA01200190019820F480600190C2
:103B7000FFE7049842F60041C4F20101884215D1E2
:103B8000FFE7009820F480500090009820F4005047
:103B9000009003984169009840EA01100090039852
:103BA0008169009840EA01100090FFE700980499AD
:103BB000486002980499C861039840680499C863F2
:103BC00001980499086205B07047000085B0049020
:103BD00003910499086A20F4805008620498006AEE
:103BE00001900498406800900498C069029002987F
:103BF00020F4E0400290029820F440700290039874
:103C00000168029840EA01200290019820F40050D7
:103C1000019003988168019840EA0130019004986E
:103C200042F60041C4F2010188420BD1FFE700983F
:103C300020F48040009003984169009840EA811088
:103C40000090FFE700980499486002980499C861C1
:103C5000039840680499086401980499086205B0C3
:103C60007047000085B00490039102920498006AA6
:103C700000900499086A20F00100086204988069A5
:103C80000190019820F0F00001900299019840EA1B
:103C900001100190009820F00A000090039900980C
:103CA000084300900198049988610098049908627B
:103CB00005B0704785B00490039102920499086A98
:103CC00020F0100008620498806901900498006A4E
:103CD0000090019820F4704001900299019840EA08
:103CE00001300190009820F0A00000900399009806
:103CF00040EA0110009001980499886100980499A5
:103D0000086205B07047000080B582B0019001984C
:103D1000406A009000990020C8850099C8840098E6
:103D2000FEF702FD02B080BD81B0009000980168EE
:103D3000C86820F49070C86000980168486920F055
:103D4000010048610098006B012807D1FFE7009847
:103D50000168C86820F01000C860FFE700992020C3
:103D600081F83E0000990020086301B07047000010
:103D700080B582B0019001980168C86820F04000C9
:103D8000C8600199202081F83D000198FFF7F4F800
:103D9000002002B080BD000080B584B0029002987F
:103DA00090F83E00222840F0C680FFE70298806825
:103DB000B0F5805F17D1FFE70298806A0190029802
:103DC000006940B9FFE70298006840686FF35F2020
:103DD0000199088006E0029800684068C0B2019925
:103DE0000880FFE71CE00298006968B9FFE70298C5
:103DF000006840688DF803009DF80300029B996AF3
:103E00004A1C9A6208700AE002980068406800F054
:103E10007F00029B996A4A1C9A620870FFE7FFE7DD
:103E20000298006843F60001C4F20101884224D1DF
:103E3000FFE79DF8030002F0D1FCE8B1FFE702982C
:103E40000168C86820F02000C86002980168C8684E
:103E500020F48070C86002980168486920F0010071
:103E600048610299202081F83E000298FEF7ECFF9D
:103E700000208DF80F0062E0FFE70298006844F22E
:103E80000041C4F20001884224D1FFE79DF80300FD
:103E900002F0C6FCE8B1FFE702980168C86820F0AC
:103EA0002000C86002980168C86820F48070C8606B
:103EB00002980168486920F00100486102992020B9
:103EC00081F83E000298FEF7BFFF00208DF80F003A
:103ED00035E0FFE70298006844F60001C4F20001F3
:103EE000884224D1FFE79DF8030003F0F7F8E8B11A
:103EF000FFE702980168C86820F02000C8600298B7
:103F00000168C86820F48070C86002980168486938
:103F100020F0010048610299202081F83E000298BB
:103F2000FEF792FF00208DF80F0008E0FFE7002069
:103F30008DF80F0003E002208DF80F00FFE79DF8D9
:103F40000F0004B080BD000080B584B003900398DA
:103F50000068006920F44050039A1168D268104349
:103F60000861039988680A69496910430843029007
:103F700003980068C06841F20C61884302990843C5
:103F800003990968C86003980068406920F440708C
:103F9000039A11689269104348610398006843F6D8
:103FA0000001C4F20101884204D1FFE7FDF744F9A2
:103FB000019003E0FDF72EF90190FFE70198192128
:103FC0004843039A116852689200B0FBF2FC48F231
:103FD0001F52C5F2EB12ACFB02304309642003FB15
:103FE00010CC322000EB0C10A0FB0202F02000EA03
:103FF000521000EB0310C2F343121044886004B067
:1040000080BD000083B002900191ADF802200198BC
:1040100002998862BDF8020002998885BDF8020005
:104020000299C8850299002008640299222081F82B
:104030003E00FFE70299002081F83C00FFE702986C
:104040000168C86840F48070C860029801684869D7
:1040500040F00100486102980168C86840F0200003
:10406000C860002003B0704783B00190019890F8B9
:104070003D0021283AD1FFE701988068B0F5805FC4
:1040800013D1FFE70198006978B9FFE70198006A4A
:104090000090009800886FF35F20019909684860DC
:1040A0000199086A0230086208E0019A106A411C0E
:1040B00011620078019909684860FFE70199C88C8E
:1040C0000138C884000468B9FFE701980168C8682E
:1040D00020F08000C86001980168C86840F0400086
:1040E000C860FFE700208DF80B0003E002208DF888
:1040F0000B00FFE79DF80B0003B0704780B540F25E
:10410000F070C2F20000FEF781FB80BD80B540F682
:104110003400C2F20000FEF779FB80BD80B540F6A6
:104120007800C2F20000FEF771FB80BDFFE7FEE7FA
:1041300081B08DF803009DF9030000280ED4FFE73D
:104140009DF9031001F01F02012090404A094EF230
:104150000011CEF2000141F82200FFE701B07047E4
:104160004EF60C50CEF200000068C0F302207047FB
:1041700082B08DF8070000919DF9070000280AD44D
:10418000FFE7009800019DF907104EF20042CEF2C1
:10419000000288540BE0009800019DF8071001F020
:1041A0000F014EF61452CEF200028854FFE702B01F
:1041B0007047000083B00290029800F00700009062
:1041C0004EF60C51CEF200010868019001984FF6AE
:1041D000FF02104001900198009A40EA022000225C
:1041E000C0F2FA52104301900198086003B0704782
:1041F00085B004900391ADF80A2001208DF80900E4
:104200000020ADF80400ADF80200FFE7BDF804009F
:10421000BDF80A10884280F28580FFE700208DF803
:1042200007000498BDF80210405C8DF808009DF866
:104230000800302813DBFFE79DF8080039280EDC62
:10424000FFE79DF808104FF60050CFF6FF7000EB27
:1042500001119DF8070008438DF807001CE09DF848
:104260000800412813DBFFE79DF8080046280EDC14
:10427000FFE79DF808104FF69040CFF6FF7000EB77
:1042800001119DF8070008438DF8070003E00020A6
:104290008DF8090046E0FFE70498BDF802100844D5
:1042A00040788DF808009DF8080030280FDBFFE704
:1042B0009DF8080039280ADCFFE79DF80800A0F106
:1042C00030019DF8070008438DF8070018E09DF8BD
:1042D000080041280FDBFFE79DF8080046280ADCAC
:1042E000FFE79DF80800A0F137019DF8070008439B
:1042F0008DF8070003E000208DF8090012E0FFE7C9
:104300009DF807000399BDF804208854FFE7BDF825
:1043100004000130ADF80400BDF802000230ADF831
:10432000020073E79DF8090005B0704784B0039060
:104330000291ADF806200020ADF80200ADF80000B3
:10434000FFE7BDF80200BDF80610884249DAFFE732
:104350000398BDF80210405C8DF805009DF805003B
:1043600000098DF804009DF80400092808DCFFE727
:104370009DF8040030300299BDF80020885407E011
:104380009DF8040037300299BDF800208854FFE7FB
:104390009DF8050000F00F008DF804009DF8040062
:1043A000092809DCFFE79DF8040030300299BDF8C8
:1043B00000201144487008E09DF80400373002994D
:1043C000BDF8002011444870FFE7FFE7BDF8020088
:1043D0000130ADF80200BDF800000230ADF8000079
:1043E000AFE704B07047000086B005900491ADF8C7
:1043F0000E2002930020ADF80400ADF80200FFE7A4
:10440000BDF80400BDF80E10884249DAFFE70598B0
:10441000BDF80410405C8DF807009DF80700000906
:104420008DF806009DF80600092808DCFFE79DF8D6
:10443000060030300499BDF80220885407E09DF84A
:10444000060037300499BDF802208854FFE79DF834
:10445000070000F00F008DF806009DF806000928FF
:1044600009DCFFE79DF8060030300499BDF8022012
:104470001144487008E09DF8060037300499BDF8F3
:10448000022011444870FFE7FFE7BDF80400013047
:10449000ADF80400BDF802000230ADF80200AFE74D
:1044A000BDF80E200299088800EB4200088006B093
:1044B0007047000080B500F023FD01F073FB80BD64
:1044C00084B00290ADF806100020ADF80200029909
:1044D000BDF80620114411F8021CADF80010BDF81B
:1044E00000100902ADF800100299BDF80620114431
:1044F00011F8012CBDF800101143ADF80010ADF813
:104500000400FFE7BDF80400BDF806100239884238
:1045100010DAFFE70298BDF80410415CBDF8020014
:104520000844ADF80200FFE7BDF804000130ADF823
:104530000400E7E7BDF80200BDF80010884204D18E
:10454000FFE701208DF80F0003E000208DF80F0039
:10455000FFE79DF80F0004B07047000086B004909C
:10456000ADF80E1041F22100C0F2010001900020D0
:10457000029080218DF80310ADF80000FFE7BDF830
:104580000000BDF80E1088422EDAFFE702984000C6
:1045900002900498BDF80010405C9DF8031008429A
:1045A00005D0FFE7029840F001000290FFE79DF878
:1045B0000A00C00728B1FFE701990298484002901D
:1045C000FFE79DF8030040088DF803009DF8030005
:1045D00048B9FFE780208DF80300BDF800000130E6
:1045E000ADF80000FFE7CAE7029820B9FFE7012015
:1045F0008DF8170003E000208DF81700FFE79DF805
:10460000170006B07047000083B002908DF80710C5
:10461000ADF8042000208DF80300ADF80000FFE79E
:10462000BDF80000BDF80410884214DAFFE70298D4
:10463000BDF80010405C9DF80710884204D1FFE7E8
:1046400001208DF8030006E0FFE7BDF8000001300F
:10465000ADF80000E4E79DF8030003B070470000E8
:1046600083B002908DF80710ADF804200020ADF85B
:104670000200FFE7BDF80200BDF80410884216DA18
:10468000FFE70298BDF80210405C9DF807108842D1
:1046900006D1FFE70299BDF8022000208854FFE709
:1046A000FFE7BDF802000130ADF80200E2E703B019
:1046B0007047000080B582B041F24030C2F2000085
:1046C000008818B9FFE7FFF7F5FEF2E041F2593034
:1046D000C2F20000007850B1FFE741F25830C2F258
:1046E0000000007818B9FFE7FFF7E4FEE0E041F2D0
:1046F0005930C2F20000007898B1FFE741F258301B
:10470000C2F20000007860B1FFE741F25931C2F215
:1047100000010020087041F25831C2F20001087017
:10472000C5E041F24330C2F200000078F8B1FFE783
:1047300041F24430C2F200000078C0B1FFE741F21C
:104740004230C2F20000007888B1FFE741F2473002
:10475000C2F20000007850B1FFE741F24630C2F2E9
:104760000000007818B1FFE7FFF7A4FE9EE041F2D9
:104770004330C2F200000078F8B9FFE741F244305C
:10478000C2F200000078C0B9FFE741F24230C2F245
:104790000000007888B9FFE741F24730C2F200001C
:1047A000007850B9FFE741F24630C2F200000078CD
:1047B00018B9FFE7FFF77EFE77E041F24330C2F21F
:1047C00000000078012820D0FFE741F24430C2F217
:1047D00000000078012818D0FFE741F24230C2F211
:1047E00000000078012810D0FFE741F24730C2F204
:1047F00000000078012808D0FFE741F24630C2F2FD
:104800000000007801284CD1FFE741F24330C2F2AA
:104810000000007838B1FFE7002001F0E1F9322014
:1048200000F08CFB3CE041F24430C2F20000007822
:1048300038B1FFE7282001F0D3F9322000F07EFBE9
:104840002DE041F24230C2F20000007840B1FFE7B3
:104850002820019001F0C4F9019800F06FFB1DE0E1
:1048600041F24730C2F20000007838B1FFE7322051
:1048700001F0B6F9282000F061FB0EE041F246306D
:10488000C2F20000007838B1FFE7322001F0A8F949
:10489000002000F053FBFFE7FFE7FFE7FFE7FFE73C
:1048A00002E0FFF707FEFFE7FFE7FFE7FFE7FFE7AD
:1048B000FFE702B080BD000080B588B00790FCF72C
:1048C000B5F8FF208DF81B0000200190029007989A
:1048D000049001200390059002A801A9FBF780FF36
:1048E00020B9FFE700208DF81B00FFE7FBF7FEFF74
:1048F0009DF81B0008B080BD80B588B00790069178
:10490000FCF794F8FF208DF817000020009001902C
:1049100007980390012002900698049001A8694628
:10492000FBF75EFF20B9FFE700208DF81700FFE7D7
:10493000FBF7DCFF9DF8170008B080BD85B0049040
:104940000391ADF80A20BDF80A008008ADF8000018
:104950000020ADF80200FFE7BDF80200BDF800102E
:1049600088422BDAFFE70498BDF8021050F82100C6
:10497000019001980399BDF8022001F822000198E6
:10498000000A0399BDF8022001EB82014870BDF8CE
:1049900006000399BDF8022001EB820188709DF8A2
:1049A00007000399BDF8022001EB8201C870FFE700
:1049B000BDF802000130ADF80200CDE705B0704748
:1049C00080B588B0079006910592002002908DF87E
:1049D0001300FCF72BF802980390FFE70399059A60
:1049E00000209142019007D2FFE79DF81300B0FA32
:1049F00080F040090190FFE70198C007D0B3FFE7BE
:104A000007984FF6EF71C0F60101884207D3FFE720
:104A10009DF8130040F001008DF8130025E0079980
:104A20000698039A50F8222002200023FBF768FF23
:104A300038B1FFE79DF8130040F002008DF8130035
:104A4000FFE70698039950F8210007990968884202
:104A500007D0FFE79DF8130040F004008DF8130025
:104A6000FFE7079804300790FFE7FFE7039801305E
:104A70000390B3E7FBF73AFF9DF8130008B080BD41
:104A800080B588B007900691ADF8162000208DF80B
:104A9000150001218DF80110BDF816108908ADF838
:104AA000021007990491ADF80E00FFE7BDF80E0063
:104AB000BDF8021088423FDAFFE70698BDF80E10F5
:104AC00010F8210002900698BDF80E1000EB81004E
:104AD0004178029840EA012002900698BDF80E1035
:104AE00000EB81008178029840EA0140029006982C
:104AF000BDF80E1000EB8100C178029840EA016019
:104B0000029002980190049801A90122FFF758FF32
:104B10008DF815009DF8150020B1FFE700208DF8F5
:104B200001000AE0049804300490FFE7BDF80E008D
:104B30000130ADF80E00B9E7FFE79DF8010008B0BD
:104B400080BD000080B584B0039000208DF8050082
:104B5000039840F20241FFF7B3FC8DF805009DF881
:104B6000050008B9FFE76CE0039840F20441FFF745
:104B7000F5FC8DF805009DF8050008B9FFE760E039
:104B800040F28000C2F2000000900020ADF8060064
:104B9000FFE7BDF80600FF2837DCFFE70398BDF804
:104BA000061000EB8100C07802900298000202908B
:104BB0000398BDF8061000EB810081780298084345
:104BC00002900298000202900398BDF8061000EBD4
:104BD00081004178029808430290029800020290F6
:104BE0000398BDF8061010F82110029808430290AF
:104BF00002980099BDF8062041F82200FFE7BDF8B1
:104C000006000130ADF80600C3E740F27800C2F2BA
:104C10000000006800994FF48072FFF7D1FE20B1C8
:104C2000FFE700208DF805000BE040F27801C2F2AA
:104C30000001086800F58060086001208DF805001B
:104C4000FFE79DF8050004B080BD000080B5C4B04A
:104C500040F60620C2F200000A30039004A8029039
:104C6000039802994FF48072FFF7C2FA8DF807009B
:104C70009DF81000552804D0FFE700208DF80700AC
:104C800029E09DF81100AA2804D0FFE700208DF844
:104C900007001FE09DF80A01552804D0FFE7002017
:104CA0008DF8070015E09DF80B01AA2804D0FFE756
:104CB00000208DF807000BE040F2CA40C2F200006D
:104CC00004A94FF48072FBF77FFA02F0C1FAFFE704
:104CD000FFE7FFE7FFE79DF8070044B080BD000055
:104CE00080B5C4B040F6BC00C2F2000000210191C2
:104CF0004FF4807200F080F901988DF80B0041F2BA
:104D00003A20C2F200000630439043980DF10A01A8
:104D10000122FFF76DFA8DF80B009DF80B00D0B162
:104D2000FFE743980230439043989DF80A2003A977
:104D3000FFF75EFA8DF80B009DF80B0050B1FFE70E
:104D40009DF80A2040F6BC00C2F2000003A900F062
:104D500073F9FFE7FFE79DF80B0044B080BD00004A
:104D600080B582B040F60040C4F2010001901021ED
:104D7000FCF71AF80146019841F24332C2F20002F0
:104D800011700821FCF710F841F24431C2F2000121
:104D9000087040F60000C4F2010000904FF400419A
:104DA000FCF702F80146009841F24232C2F20002DA
:104DB00011704FF48051FBF7F7FF0146009841F264
:104DC0004732C2F2000211704FF40061FBF7ECFFB2
:104DD0000146019841F24632C2F2000211704021B0
:104DE000FBF7E2FF41F23E31C2F20001087002B06F
:104DF00080BD000080B540F2CA60C2F20000002110
:104E0000017041F25232C2F20002FF20107040F6EF
:104E1000BC00C2F200004FF4807200F0EDF880BDDB
:104E200080B540F26070C2F200000168C96A0A0AE7
:104E300040F28A41C2F200010A700068C06A4870FC
:104E4000087888704878C87000220A714A71122068
:104E50008871C8710A724A728A72CA72087348737A
:104E60008A73CA730A744A748874C8740A754A7556
:104E70008A75CA75087648768A76CA7608770122D6
:104E80004A77887740F2A940C2F200001F22FBF760
:104E90009BF940F2C841C2F200016420088080BD45
:104EA00080B540F2CA41C2F2000155220A70AA2020
:104EB0004870322381F8D03081F8D13081F8D23077
:104EC00081F8D33081F8D43081F8D53081F8D630EC
:104ED00081F8D73081F8D83081F8D930FF2381F8B4
:104EE000DA3081F8DB2081F8FA2081F8FB0040F20B
:104EF000CA50C2F200004FF48072FBF765F980BD22
:104F000040F28A40C2F20000007938B1FFE740F277
:104F10008A41C2F2000100200871FFE740F28A4096
:104F2000C2F20000807A38B1FFE740F28A41C2F253
:104F3000000100208872FFE77047000081B08DF803
:104F400003009DF80300642804DBFFE763208DF86D
:104F50000300FFE740F28A41C2F20001012008711C
:104F60009DF80300887101B07047000080B582B0E1
:104F70000020019000F088FD18B9FFE7FFF790FFCF
:104F8000FFE740F2CA50C2F2000040F2CA41C2F24A
:104F900000014FF48072FBF717F9FBF75DFFFEF796
:104FA000A1FBFEF73FF8FEF7B3FAFEF7D1FAFEF7E2
:104FB000E5F8FEF79FF9FEF7EBFAFEF725F9FEF7A5
:104FC0002DFAFFE700F0BCF8FCE7000080B540F2E6
:104FD000CA60C2F20000007801280BD1FFE740F25E
:104FE000CA61C2F200010020087000BF02F030F96F
:104FF00000BFFFE780BD000083B002908DF807106E
:10500000ADF804200020ADF80200FFE7BDF8020073
:10501000BDF8041088420DDAFFE79DF807000299F9
:10502000BDF802208854FFE7BDF802000130ADF85A
:105030000200EBE703B0704783B002900191ADF836
:1050400002200020ADF80000FFE7BDF80000BDF829
:10505000021088420DDAFFE70198BDF80020805C5D
:1050600002998854FFE7BDF800000130ADF8000058
:10507000EBE703B07047000080B540F6BC10C2F209
:1050800000000088002845D1FFE741F60300C2F286
:1050900000000078B0B1FFE740F28040C2F20000AB
:1050A000007878B9FFE740F6BC11C2F20001142085
:1050B000088041F20000C4F201004FF40051FBF7F8
:1050C0008BFE26E040F28040C2F20000007801280A
:1050D0000FD1FFE740F6BC11C2F2000105200880A5
:1050E00041F20000C4F201004FF40051FBF774FEDE
:1050F0000EE040F6BC11C2F200016420088041F2CB
:105100000000C4F201004FF40051FBF765FEFFE719
:10511000FFE7FFE740F60420C2F200000088012804
:105120000DD1FFE740F60421C2F200010020088003
:1051300040F60021C2F2000101200870FFE780BDA7
:1051400080B540F2CC60C2F20000FCF7C7FD40F22F
:10515000F070C2F2000040F6F011C2F2000110221D
:10516000FDF736FE40F63400C2F2000040F61E6144
:10517000C2F200014FF48362FDF72AFE40F6780088
:10518000C2F2000041F2BA21C2F200018022FDF712
:105190001FFE40F21870C2F20000FCF74DFDFFF751
:1051A00029FEFFF73DFE00F0CFFC40F2CA40C2F2FC
:1051B000000090F8DA0040F27501C2F200010870B8
:1051C000FFE7FFE740F21470C2F20000007808B970
:1051D000FFE7F7E740F21471C2F200010020087007
:1051E00000BFFFF749FF01F083FCFFF7EFFE00F07F
:1051F0008BFE00F04FFFFFF75DFA00F003F800F0C0
:10520000D3FADEE780B586B040F2C840C2F20000B3
:105210000088002840F0C682FFE740F28A40C2F2D0
:1052200000000079002800F08580FFE740F28A4105
:10523000C2F200010879497948404FD0FFE740F2B7
:105240008A40C2F200008079002846D0FFE740F291
:105250008A41C2F20001087948718879C8710878DA
:105260008978484009D1FFE740F28A41C2F2000143
:105270004878C97848401BD0FFE740F28A40C2F224
:105280000000017881704178C1700178ADF8141088
:10529000BDF814100902ADF814104178BDF81400DF
:1052A0000843ADF81400BDF8140000F0BBFFFFE7A1
:1052B00040F28A40C2F2000080798DF817009DF814
:1052C00017000821049100F061FF049940F260701A
:1052D000C2F20000FDF7E4F8FFE718E040F28A416F
:1052E000C2F200018879C97948400FD0FFE740F247
:1052F0008A40C2F200008179C17180798DF817006F
:105300009DF81700082100F041FFFFE7FFE740F696
:105310000000C4F201002021FBF746FD48B9FFE779
:1053200040F60000C4F2010020210122FBF768FDD5
:10533000FFE717E040F28A41C2F20001087949799B
:1053400048400ED0FFE740F28A41C2F200010879DE
:10535000487140F26070C2F200000821FDF750F978
:10536000FFE7FFE740F28A40C2F20000807A00289F
:1053700000F08580FFE740F28A41C2F20001887A9E
:10538000C97A48404FD0FFE740F28A40C2F200009D
:10539000007B002846D0FFE740F28A41C2F20001BC
:1053A000887AC872087B487308788978484009D1A0
:1053B000FFE740F28A41C2F200014878C9784840CC
:1053C0001BD0FFE740F28A40C2F2000001788170F2
:1053D0004178C1700178ADF81410BDF814100902BD
:1053E000ADF814104178BDF814000843ADF814006E
:1053F000BDF8140000F016FFFFE740F28A40C2F249
:105400000000007B8DF817009DF817000C21039118
:1054100000F0BCFE039940F26070C2F20000FDF79C
:105420003FF8FFE718E040F28A41C2F20001087B32
:10543000497B48400FD0FFE740F28A40C2F20000AB
:10544000017B4173007B8DF817009DF817000C213C
:1054500000F09CFEFFE7FFE740F60000C4F2010009
:105460002021FBF7A1FC48B9FFE740F60000C4F299
:10547000010020210122FBF7C3FCFFE717E040F207
:105480008A41C2F20001887AC97A48400ED0FFE70B
:1054900040F28A41C2F20001887AC87240F260701C
:1054A000C2F200000C21FDF7ABF8FFE7FFE740F286
:1054B0008A40C2F20000007C00287BD0FFE740F267
:1054C0008A41C2F20001087C497C484046D0FFE78F
:1054D00040F28A41C2F20001087C4874887CC8749A
:1054E00008788978484009D1FFE740F28A41C2F242
:1054F00000014878C97848401BD0FFE740F28A4055
:10550000C2F20000017881704178C1700178ADF875
:105510001410BDF814100902ADF814104178BDF84C
:1055200014000843ADF81400BDF8140000F07AFE32
:10553000FFE740F28A40C2F20000807C8DF817003D
:105540009DF817000421029100F020FE029940F21C
:105550006070C2F20000FCF7A3FF18E040F28A413D
:10556000C2F20001887CC97C48400FD0FFE740F2BE
:105570008A40C2F20000817CC174807C8DF81700E3
:105580009DF81700042100F001FEFFE7FFE740F659
:105590000000C4F201001021FBF706FC48B9FFE748
:1055A00040F60000C4F2010010210122FBF728FCA4
:1055B000FFE717E040F28A41C2F20001087C497C13
:1055C00048400ED0FFE740F28A41C2F20001087C59
:1055D000487440F26070C2F200000421FDF710F838
:1055E000FFE7FFE740F28A40C2F20000807D00281A
:1055F0007BD0FFE740F28A41C2F20001887DC97D7D
:10560000484046D0FFE740F28A41C2F20001887D5F
:10561000C875087E487608788978484009D1FFE740
:1056200040F28A41C2F200014878C97848401BD054
:10563000FFE740F28A40C2F20000017881704178B1
:10564000C1700178ADF81410BDF814100902ADF85E
:1056500014104178BDF814000843ADF81400BDF8EB
:10566000140000F0DFFDFFE740F28A40C2F20000C4
:10567000007E8DF817009DF817000021019100F0C1
:1056800085FD019940F26070C2F20000FCF708FF4E
:1056900018E040F28A41C2F20001087E497E48408B
:1056A0000FD0FFE740F28A40C2F20000017E41764F
:1056B000007E8DF817009DF81700002100F066FDB0
:1056C000FFE7FFE740F60000C4F201001021FBF7FE
:1056D0006BFB48B9FFE740F60000C4F2010010215F
:1056E0000122FBF78DFBFFE717E040F28A41C2F28F
:1056F0000001887DC97D48400ED0FFE740F28A4115
:10570000C2F20001887DC87540F26070C2F20000EC
:105710000021FCF775FFFFE7FFE740F28A40C2F285
:105720000000007CD8B9FFE740F28A40C2F20000D6
:10573000807DA0B9FFE740F60000C4F2010010210F
:10574000FBF732FB012809D1FFE740F60000C4F265
:10575000010010210022FBF753FBFFE7FFE740F2B7
:105760008A40C2F200000079D8B9FFE740F28A40CF
:10577000C2F20000807AA0B9FFE740F60000C4F250
:1057800001002021FBF710FB012809D1FFE740F6BB
:105790000000C4F2010020210022FBF731FBFFE7EB
:1057A000FFE7FFE706B080BD80B582B041F2483028
:1057B000C2F200000078D0B9FFE741F24831C2F2EE
:1057C00000010320087041F24A31C2F200014FF497
:1057D0007A70088041F24C31C2F200010120088049
:1057E00041F24531C2F2000100200870D5E041F2DB
:1057F0004830C2F200000078012823D1FFE741F2CF
:105800004A30C2F200000088D8B9FFE741F24A31BD
:10581000C2F200013220088041F24530C2F200009D
:105820000022027041F24831C2F2000108780130D2
:10583000087040F60040C4F201008021FBF7E0FA56
:10584000FFE7A9E041F24830C2F2000000780228E8
:105850003AD1FFE741F24A30C2F20000008890BB23
:10586000FFE741F24A31C2F2000141F27070088054
:1058700041F24531C2F200010020087041F25A3075
:10588000C2F20000007870B9FFE741F24831C2F27D
:1058900000010320087041F24C31C2F200014FF4C4
:1058A0007A70088006E041F24831C2F2000104201B
:1058B0000870FFE740F60040C4F201008021012299
:1058C000FBF79EFAFFE766E041F24830C2F20000C3
:1058D000007803285DD1FFE741F23E30C2F20000BC
:1058E000007841F23F31C2F20001097848401ED0F1
:1058F000FFE741F23E30C2F20000007841F23F3152
:10590000C2F20001087041F24031C2F20001C82029
:10591000088041F24C31C2F200014FF47A700880E5
:1059200041F24531C2F2000101200870FFE741F267
:105930004A30C2F20000008850BBFFE741F25A3003
:10594000C2F200000078D8B9FFE741F24C30C2F251
:1059500000000088012812D1FFE741F24C31C2F269
:1059600000010020088041F24832C2F20002012109
:10597000117041F24531C2F200010870FFE706E004
:1059800041F24831C2F2000101200870FFE7FFE751
:1059900000E0FFE7FFE7FFE7FFE741F25030C2F228
:1059A0000000007841F24F31C2F20001097848400E
:1059B00066D0FFE741F24F30C2F20000017841F2B9
:1059C0005030C2F2000001700078A0B9FFE740F645
:1059D0000040C4F201004FF4004100220192FBF7A5
:1059E0000FFA019A40F60000C4F201004FF48071F2
:1059F000FBF706FA43E041F25030C2F200000078B3
:105A0000012813D1FFE740F60040C4F201004FF433
:105A100000410122FBF7F4F940F60000C4F2010056
:105A20004FF480710022FBF7EBF927E041F24F3091
:105A3000C2F20000007802280CD0FFE741F24F319B
:105A4000C2F200010220087041F25031C2F200019E
:105A50000870FFE740F60040C4F201004FF4004137
:105A600001220092FBF7CCF9009A40F60000C4F244
:105A700001004FF48071FBF7C3F9FFE7FFE7FFE791
:105A8000FFF76EF902B080BD80B5C4B001208DF87B
:105A90000F0004A8029002994FF60040C0F60100E2
:105AA0004FF48072FEF74AFF9DF81000552804D08D
:105AB000FFE700208DF80F0021E09DF81100AA28D3
:105AC00004D0FFE700208DF80F0017E09DF80A01D1
:105AD000552804D0FFE700208DF80F000DE09DF859
